:020000040000FA
:06000000DEEF2DF01200FE
:02000600840371
:08000800F2A402D094EF28F0ED
:100010009EA002D00CEF29F09EAA02D05CEF1FF048
:0A0020001200D08EF28EF28C120056
:06002A000B005B5F00000B
:10003000000F000024000000595F0000360F000090
:10004000020000001F5C0000C3020000010000006D
:10005000C55E000022020000940000008C5E0000DB
:1000600000060000390000007F5E00008A010000E9
:100070000D0000005D5E0000000200002200000094
:10008000545D00000004000009010000385D00001C
:10009000970100001C000000B25C0000000300009B
:1000A00086000000285C0000000100008A000000BB
:1000B000D9CFE6FFE1CFD9FF0A0EE126050EDB6AB4
:1000C000060EDB6A070EDB6A080EDB6A090EDB6AC6
:1000D0000601036B046B056B066B0601076B086B6F
:1000E000096B0A6B0401046BDE6ADD6ADECF14F073
:1000F000DDCF15F0010E145C000E155801E3AED0F3
:10010000DECF14F0DDCF15F01F0E1502F3CF15F082
:100110001F0E1402F3CF14F0F4501526170E1426F8
:10012000060E1522030E14C0DBFF040E15C0DBFF04
:10013000020EDB6A1F0EF36E020EDBCFF4FFF350EC
:10014000F45C35E210EC2EF00400020EDB50166E6B
:10015000176A1F0E086E096ADECF0DF0DDCF0EF0B4
:100160002EEC2DF006501624146E07501720156E35
:1001700014C0E6FF15C0E6FF9AEC2CF0E552E552FC
:10018000E66E020EDB50E76E030EDBCFE9FF040ED6
:10019000DBCFEAFFE750E926000EEA22E552E750FE
:1001A000EF6E10EC2EF00400020EDB2AC3D7DECF78
:1001B000E9FFDDCFEAFF1F0EEA02F3CFEAFF1F0ED1
:1001C000E902F3CFE9FFF450EA26170EE926060EFE
:1001D000EA221D0EE926000EEA22EF0402E10601E2
:1001E000012BDECFE9FFDDCFEAFF1F0EEA02F3CFDE
:1001F000EAFF1F0EE902F3CFE9FFF450EA26170EDB
:10020000E926060EEA221D0EE926000EEA22EF502C
:10021000030802E10601022BDECFE9FFDDCFEAFF92
:100220001F0EEA02F3CFEAFF1F0EE902F3CFE9FF48
:10023000F450EA26170EE926060EEA221E0EE926DB
:10024000000EEA22EF0405E1010EF36E050EF3CF76
:10025000DBFFDF2A010E01E3DB2A48D7060102514A
:10026000000806E2010EF36E080EF3CFDBFF0FD09D
:1002700006010151000806E2010EF36E070EF3CFEE
:10028000DBFF05D0010EF36E060EF3CFDBFF050E8C
:10029000DB0405E1010EF36E090EF3CFDBFFDE6A2E
:1002A000DD6ADECF14F0DDCF15F0040E145C000E15
:1002B000155824E2DECF14F0DDCF15F0210E142600
:1002C000000E152214C0E6FF15C0E6FF9AEC2CF0D4
:1002D000E552E552E66EDECFE9FFDDCFEAFF0D0E17
:1002E000E926060EEA22E552E750EF6E10EC2EF0FA
:1002F0000400DF2A010E01E3DB2AD3D7DECFE9FFBA
:10030000DDCFEAFF0D0EE926060EEA22EF6ADE6A6D
:10031000DD6ADECF14F0DDCF15F0040E145C000EA4
:10032000155824E2DECF14F0DDCF15F0250E14268B
:10033000000E152214C0E6FF15C0E6FF9AEC2CF063
:10034000E552E552E66EDECFE9FFDDCFEAFF120EA1
:10035000E926060EEA22E552E750EF6E10EC2EF089
:100360000400DF2A010E01E3DB2AD3D7DECFE9FF49
:10037000DDCFEAFF0D0EE926060EEA22EF6A290E0E
:10038000E66EE66A9AEC2CF0E552E5520601366F0D
:1003900010EC2EF004000601060E386F10EC2EF063
:1003A0000400E66AE66AE66AE66AAFEC12F0E55235
:1003B000E552E552E55232D8E66ACEEC1DF0E55240
:1003C000090EDBCFE6FF080EDBCFE6FF070EDBCF23
:1003D000E6FF060EDBCFE6FFAFEC12F0E552E5528A
:1003E000E552E5528E0EE66E2A0EE66EDD0EE66EE4
:1003F000CC0EE66EBB0EE66EAA0EE66EA7EC24F0FF
:10040000146E060EE15E14500A0EE15C02E2E16A2F
:10041000E552E16EE552E7CFD9FF1200D9CFE6FFF2
:10042000E1CFD9FF050EE126DF6A010EDB6A020E7D
:10043000DB6A030EDB6A06010251000808E2030EC4
:10044000006F010EF36E020EF3CFDBFF0DD00151F2
:10045000000805E2010E006FDE52DD6E05D0006B74
:10046000010EDF6E030EDB6A040EDB6A010EF36E13
:10047000040EDBCFF4FFF350F45C1AE2040EDB5001
:100480001F0DF3CFE9FFF4CFEAFF170EE926060EA2
:10049000EA221E0EE926000EEA22EF0406E1010E12
:1004A000F36E030EF3CFDBFF03D0040EDB2ADED79F
:1004B000030EDBCFE6FF020EDBCFE6FF010EDBCF44
:1004C000E6FFDFCFE6FFAFEC12F0E552E552E55272
:1004D000E552050EE15C02E2E16AE552E16EE552A9
:1004E000E7CFD9FF1200D9CFE6FFE1CFD9FF050E44
:1004F000E126DF6A010EDB6A020EDB6A030EDB6AAD
:10050000FD0EDBCFE6FFFE0EDBCFE6FF120EE66E42
:10051000060EE66E92EC2AF0E552E552E552E552FF
:10052000000902E0000E6FD006010251000809E246
:100530000601030E006F010EF36E020EF3CFDBFF18
:1005400011D006010151000807E20601010E006FFB
:10055000DE52010EDD6E06D00601006B010EDF6E6D
:10056000030EDB6A040EDB6A010EF36E040EDBCFB2
:10057000F4FFF350F45C1AE2040EDB501F0DF3CFCE
:10058000E9FFF4CFEAFF170EE926060EEA221E0E57
:10059000E926000EEA22EF0406E1010EF36E030ED7
:1005A000F3CFDBFF03D0040EDB2ADED7030EDBCF55
:1005B000E6FF020EDBCFE6FF010EDBCFE6FFDFCF6B
:1005C000E6FFAFEC12F0E552E552E552E552FB0EC4
:1005D000DBCFE6FFFC0EDBCFE6FF5FEC12F0E5526F
:1005E000E552010EE66E290EE66EE66AE9EC2BF0A6
:1005F000E552E552E55210EC2EF004000601010E22
:10060000366F010E00D0146E050EE15C02E2E16A65
:10061000E552E16E1450E552E7CFD9FF1200D9CF71
:10062000E6FFE1CFD9FF050EE126DF6A010EDB6AA6
:10063000020EDB6A030EDB6AFD0EDBCFE6FFFE0E69
:10064000DBCFE6FF120EE66E060EE66E92EC2AF0A7
:10065000E552E552E552E552000902E0000E2BD0CA
:10066000030EDBCFE6FF020EDBCFE6FF010EDBCF92
:10067000E6FFDFCFE6FFAFEC12F0E552E552E552C0
:10068000E552FB0EDBCFE6FFFC0EDBCFE6FF5FECB7
:1006900012F0E552E552E66A290EE66EE66AE9ECEA
:1006A0002BF0E552E552E55210EC2EF00400060165
:1006B000366B010E00D0146E050EE15C02E2E16AB9
:1006C000E552E16E1450E552E7CFD9FF1200D9CFC1
:1006D000E6FFE1CFD9FF090EE126010EF36E080E09
:1006E000F3CFDBFF8CEC29F006C007F607C008F655
:1006F00008C009F609C00AF6030EE96E060EEA6E96
:10070000EE50060107190CE1EE500601081908E148
:10071000EE500601091904E1EE5006010A1900E144
:1007200001E108D107C603F608C604F609C605F6B6
:100730000AC606F6DF6A010EDF5C01E3ECD0DF508B
:100740001F0DF3CFE9FFF4CFEAFF170EE926060EDF
:10075000EA221D0EE926000EEA22EF0401E0D9D0BC
:10076000DF501F0DF3CFE9FFF4CFEAFF170EE926A4
:10077000060EEA221E0EE926000EEA22EF0401E030
:10078000C8D0DF501F0DF3CFE9FFF4CFEAFF170EFB
:10079000E926060EEA221B0EE926000EEA22EE06E4
:1007A000000EED5A0601000534E1FF0E0601385D2A
:1007B00030E0060EF66E000EF76E0900F5CF16F06B
:1007C0000800F5CF17F0DF501F0DF3CFE9FFF4CF8E
:1007D000EAFF170EE926060EEA221B0EE926000E96
:1007E000EA22EE50165C146EEE501758156E38C69D
:1007F00018F0196A18BE19681850145C1950155869
:1008000003E2080EDB6A05D0010EF36E080EF3CF8B
:10081000DBFFDF501F0DF3CFE9FFF4CFEAFF170E28
:10082000E926060EEA221B0EE926000EEA22E9CF8F
:1008300014F0EACF15F0010E14C0DBFF020E15C054
:10084000DBFF010EDBCFE9FF020EDBCFEAFF030E79
:10085000EFCFDBFF1F0EDF02F3501B0F146E040EF1
:1008600014C0DBFF050EDB6A060EDB6A070EDB6ACF
:10087000010EDBCFE9FF020EDBCFEAFFEF50E66EA1
:100880001F0EDF02F3501B0FE66EE66AE9EC2BF059
:10089000E552E552E55210EC2EF00400010EE76E31
:1008A000010EDBCFE9FF020EDBCFEAFFE750E926BE
:1008B000000EEA22030EEFCFDBFF1F0EDF02F35024
:1008C0001B0F010F146E040E14C0DBFF050EDB6A54
:1008D000060EDB6A070EDB6A010EE76E010EDBCF48
:1008E000E9FF020EDBCFEAFFE750E926000EEA221D
:1008F000EF50E66E1F0EDF02F3501B0F010FE66E86
:10090000E66AE9EC2BF0E552E552E55210EC2EF0E8
:100910000400DF2A10D7080EDB0402E1809601D024
:100920008086DEEC13F0010805E1808406010151A8
:1009300001E18090090EE15C02E2E16AE552E16EBC
:10094000E552E7CFD9FF1200D9CFE6FFE1CFD9FFBB
:10095000040EE126FD0EDBCFE9FFFE0EDBCFEAFF42
:10096000200EE926000EEA22EF28DF6E010EDB6A78
:10097000020EDB6A010EDF5C01E3DF6AFD0EDBCFF6
:10098000E9FFFE0EDBCFEAFF200EE926000EEA2289
:10099000EF68030EDB6A010EF36E030EDBCFF4FF8C
:1009A000F350F45C02E3BEEF09F0060E146E14C0BF
:1009B0000EF0DFCF09F0ECEC2DF00550DF6EDF50CC
:1009C0001F0DF3CFE9FFF4CFEAFF170EE926060E5D
:1009D000EA221E0EE926000EEA22EF5004E1030E81
:1009E000DB2ADF2AD8D7FD0EDBCFE9FFFE0EDBCFF7
:1009F000EAFFE9CF14F0EACF15F0010EDBCFF3FFE9
:100A0000DB2AF3500F011424E96E000E1520EA6E64
:100A10004C0EEF6EFD0EDBCFE9FFFE0EDBCFEAFFE3
:100A2000E9CF14F0EACF15F0010EDBCFF3FFDB2A9C
:100A3000F3501424E96E000E1520EA6E490EEF6E95
:100A4000FD0EDBCFE9FFFE0EDBCFEAFFE9CF14F0AE
:100A5000EACF15F0010EDBCFF3FFDB2AF3501424AD
:100A6000E96E000E1520EA6E4E0EEF6EFD0EDBCF26
:100A7000E9FFFE0EDBCFEAFFE9CF14F0EACF15F075
:100A8000010EDBCFF3FFDB2AF3501424E96E000ED6
:100A90001520EA6E450EEF6EFD0EDBCFE9FFFE0E70
:100AA000DBCFEAFFE9CF14F0EACF15F0010EDBCF80
:100AB000F3FFDB2AF3501424E96E000E1520EA6ED2
:100AC0003A0EEF6EDF501F0DF3CFE9FFF4CFEAFFD0
:100AD000170EE926060EEA22E9CF16F0EACF17F044
:100AE000020EDBCFF3FFDB2AF3501624E96E000E73
:100AF0001720EA6EEF50E66EFD0EDBCFE9FFFE0E2B
:100B0000DBCFEAFFE9CF14F0EACF15F0010EDBCF1F
:100B1000F3FFDB2AF3501424E96E000E1520EA6E71
:100B2000E552E750EF6EDF501F0DF3CFE9FFF4CF32
:100B3000EAFF170EE926060EEA22E9CF16F0EACF01
:100B400017F0020EDBCFF3FFDB2AF3501624E96E19
:100B5000000E1720EA6EEF50E66EFD0EDBCFE9FFC8
:100B6000FE0EDBCFEAFFE9CF14F0EACF15F0010E5D
:100B7000DBCFF3FFDB2AF3501424E96E000E1520BF
:100B8000EA6EE552E750EF6EFD0EDBCFE9FFFE0E99
:100B9000DBCFEAFFE9CF14F0EACF15F0010EDBCF8F
:100BA000F3FFDB2AF3501424E96E000E1520EA6EE1
:100BB0003B0EEF6EFD0EDBCFE9FFFE0EDBCFEAFF53
:100BC000E9CF14F0EACF15F0010EDBCFF3FFDB2AFB
:100BD000F3501424E96E000E1520EA6E530EEF6EEA
:100BE000FD0EDBCFE9FFFE0EDBCFEAFFE9CF14F00D
:100BF000EACF15F0010EDBCFF3FFDB2AF35014240C
:100C0000E96E000E1520EA6E540EEF6EFD0EDBCF7E
:100C1000E9FFFE0EDBCFEAFFE9CF14F0EACF15F0D3
:100C2000010EDBCFF3FFDB2AF3501424E96E000E34
:100C30001520EA6E4E0EEF6EFD0EDBCFE9FFFE0EC5
:100C4000DBCFEAFFE9CF14F0EACF15F0010EDBCFDE
:100C5000F3FFDB2AF3501424E96E000E1520EA6E30
:100C60003A0EEF6EDF501F0DF3CFE9FFF4CFEAFF2E
:100C7000170EE926060EEA22E9CF16F0EACF17F0A2
:100C8000020EDBCFF3FFDB2AF3501624E96E000ED1
:100C90001720EA6EEF50E66EFD0EDBCFE9FFFE0E89
:100CA000DBCFEAFFE9CF14F0EACF15F0010EDBCF7E
:100CB000F3FFDB2AF3501424E96E000E1520EA6ED0
:100CC000E552E750EF6EDF501F0DF3CFE9FFF4CF91
:100CD000EAFF170EE926060EEA22E9CF16F0EACF60
:100CE00017F0020EDBCFF3FFDB2AF3501624E96E78
:100CF000000E1720EA6EEF50E66EFD0EDBCFE9FF27
:100D0000FE0EDBCFEAFFE9CF14F0EACF15F0010EBB
:100D1000DBCFF3FFDB2AF3501424E96E000E15201D
:100D2000EA6EE552E750EF6EFD0EDBCFE9FFFE0EF7
:100D3000DBCFEAFFE9CF14F0EACF15F0010EDBCFED
:100D4000F3FFDB2AF3501424E96E000E1520EA6E3F
:100D50003B0EEF6EDF501F0DF3CFE9FFF4CFEAFF3C
:100D6000170EE926060EEA22E9CF14F0EACF15F0B5
:100D7000020EDB501424E96E000E1520EA6EEF50CF
:100D8000340A01E1C9D1070A01E1B0D1010A2BE01F
:100D9000030A01E05CD200CF14F001CF15F0166A0F
:100DA00014C0E6FF15C0E6FF16C0E6FFFD0EDBCF60
:100DB000E9FFFE0EDBCFEAFFE9CF19F0EACF1AF028
:100DC000010EDB5000011924176E000E1A20186E58
:100DD00017C0E6FF18C0E6FFD3EC2AF01B6E050E25
:100DE000E15E1B5034D2FD0EDBCFE9FFFE0EDBCF00
:100DF000EAFFE9CF14F0EACF15F0010EDBCFF3FFE5
:100E0000DB2AF3501424E96E000E1520EA6E510E11
:100E1000EF6EFD0EDBCFE9FFFE0EDBCFEAFFE9CF81
:100E200014F0EACF15F0010EDBCFF3FFDB2AF3500D
:100E30001424E96E000E1520EA6E550EEF6EFD0EBD
:100E4000DBCFE9FFFE0EDBCFEAFFE9CF14F0EACFFC
:100E500015F0010EDBCFF3FFDB2AF3501424E96E0B
:100E6000000E1520EA6E410EEF6EFD0EDBCFE9FF9E
:100E7000FE0EDBCFEAFFE9CF14F0EACF15F0010E4A
:100E8000DBCFF3FFDB2AF3501424E96E000E1520AC
:100E9000EA6E4C0EEF6EFD0EDBCFE9FFFE0EDBCFF0
:100EA000EAFFE9CF14F0EACF15F0010EDBCFF3FF34
:100EB000DB2AF3501424E96E000E1520EA6E490E69
:100EC000EF6EFD0EDBCFE9FFFE0EDBCFEAFFE9CFD1
:100ED00014F0EACF15F0010EDBCFF3FFDB2AF3505D
:100EE0001424E96E000E1520EA6E540EEF6EFD0E0E
:100EF000DBCFE9FFFE0EDBCFEAFFE9CF14F0EACF4C
:100F000015F0010EDBCFF3FFDB2AF3501424E96E5A
:100F1000000E1520EA6E590EEF6EFD0EDBCFE9FFD5
:100F2000FE0EDBCFEAFFE9CF14F0EACF15F0010E99
:100F3000DBCFF3FFDB2AF3501424E96E000E1520FB
:100F4000EA6E3B0EEF6EFD0EDBCFE9FFFE0EDBCF50
:100F5000EAFFE9CF14F0EACF15F0010EDBCFF3FF83
:100F6000DB2AF3501424E96E000E1520EA6E430EBE
:100F7000EF6EFD0EDBCFE9FFFE0EDBCFEAFFE9CF20
:100F800014F0EACF15F0010EDBCFF3FFDB2AF350AC
:100F90001424E96E000E1520EA6E4C0EEF6EFD0E65
:100FA000DBCFE9FFFE0EDBCFEAFFE9CF14F0EACF9B
:100FB00015F0010EDBCFF3FFDB2AF3501424E96EAA
:100FC000000E1520EA6E410EEF6EFD0EDBCFE9FF3D
:100FD000FE0EDBCFEAFFE9CF14F0EACF15F0010EE9
:100FE000DBCFF3FFDB2AF3501424E96E000E15204B
:100FF000EA6E530EEF6EFD0EDBCFE9FFFE0EDBCF88
:10100000EAFFE9CF14F0EACF15F0010EDBCFF3FFD2
:10101000DB2AF3501424E96E000E1520EA6E530EFD
:10102000EF6EFD0EDBCFE9FFFE0EDBCFEAFFE9CF6F
:1010300014F0EACF15F0010EDBCFF3FFDB2AF350FB
:101040001424E96E000E1520EA6E3A0EEF6EDF50A2
:101050001F0DF3CFE9FFF4CFEAFF170EE926060EC6
:10106000EA22030EE926000EEA22EF50E66EFD0E9C
:10107000DBCFE9FFFE0EDBCFEAFFE9CF14F0EACFCA
:1010800015F0010EDBCFF3FFDB2AF3501424E96ED9
:10109000000E1520EA6EE552E750EF6EDF501F0D8F
:1010A000F3CFE9FFF4CFEAFF170EE926060EEA2296
:1010B000040EE926000EEA22EF50E66EFD0EDBCFAD
:1010C000E9FFFE0EDBCFEAFFE9CF14F0EACF15F01F
:1010D000010EDBCFF3FFDB2AF3501424E96E000E80
:1010E0001520EA6EE552E750EF6EB1D0FD0EDBCF72
:1010F000E9FFFE0EDBCFEAFFE9CF14F0EACF15F0EF
:10110000010EDBCFF3FFDB2AF3501424E96E000E4F
:101110001520EA6E230EEF6EFD0EDBCFE9FFFE0E0B
:10112000DBCFEAFFE9CF14F0EACF15F0010EDBCFF9
:10113000F3FFDB2AF3501424E96E000E1520EA6E4B
:101140004F0EEF6EFD0EDBCFE9FFFE0EDBCFEAFFA9
:10115000E9CF14F0EACF15F0010EDBCFF3FFDB2A65
:10116000F3501424E96E000E1520EA6E540EEF6E53
:10117000FD0EDBCFE9FFFE0EDBCFEAFFE9CF14F077
:10118000EACF15F0010EDBCFF3FFDB2AF350142476
:10119000E96E000E1520EA6E480EEF6EFD0EDBCFF5
:1011A000E9FFFE0EDBCFEAFFE9CF14F0EACF15F03E
:1011B000010EDBCFF3FFDB2AF3501424E96E000E9F
:1011C0001520EA6E450EEF6EFD0EDBCFE9FFFE0E39
:1011D000DBCFEAFFE9CF14F0EACF15F0010EDBCF49
:1011E000F3FFDB2AF3501424E96E000E1520EA6E9B
:1011F000520EEF6EFD0EDBCFE9FFFE0EDBCFEAFFF6
:10120000E9CF14F0EACF15F0010EDBCFF3FFDB2AB4
:10121000F3501424E96E000E1520EA6E530EEF6EA3
:10122000FD0EDBCFE9FFFE0EDBCFEAFFE9CF14F0C6
:10123000EACF15F0010EDBCFF3FFDB2AF3501424C5
:10124000E96E000E1520EA6E3B0EEF6E00D0FD0E2B
:10125000DBCFE9FFFE0EDBCFEAFFE9CF14F0EACFE8
:1012600015F0010EDBCFF3FFDB2AF3500F0114243E
:10127000E96E000E1520EA6E3B0EEF6EFD0EDBCF21
:10128000E9FFFE0EDBCFEAFFE9CF14F0EACF15F05D
:10129000010EDBCFF3FFDB2AF3501424E96E000EBE
:1012A0001520EA6E230EEF6E020EDB2ADF501F0DB3
:1012B000F3CFE9FFF4CFEAFF170EE926060EEA2284
:1012C000E9CF14F0EACF15F0020EDB501424E96EDA
:1012D000000E1520EA6EEF5030E0DF501F0DF3CF07
:1012E000E9FFF4CFEAFF170EE926060EEA22E9CF5E
:1012F00016F0EACF17F0020EDB501624E96E000E4E
:101300001720EA6EEF50E66EFD0EDBCFE9FFFE0E12
:10131000DBCFEAFFE9CF14F0EACF15F0010EDB5086
:101320001424E96E000E1520EA6EE552E750EF6EC8
:10133000010EDB2A020EDB2AB9D7FD0EDBCFE9FF57
:10134000FE0EDBCFEAFFE9CF14F0EACF15F0010E75
:10135000DB501424E96E000E1520EA6EEF6ADFCF31
:1013600037F6FD0EDBCFE9FFFE0EDBCFEAFF200EE6
:10137000E926000EEA2237C6EFFF00D0040EE15C3A
:1013800002E2E16AE552E16EE552E7CFD9FF1200D1
:10139000D9CFE6FFE1CFD9FF040EE126FD0EDBCF6A
:1013A000E9FFFE0EDBCFEAFF200EE926000EEA225F
:1013B000EF28DF6E010EDB6A020EDB6A010EDF5CD6
:1013C00001E3DF6AFD0EDBCFE9FFFE0EDBCFEAFFB4
:1013D000200EE926000EEA22EF68030EDB6A010EFA
:1013E000F36E030EDBCFF4FFF350F45C01E3D6D3CE
:1013F000DF501F0BDF6EDF501F0DF3CFE9FFF4CF7F
:10140000EAFF170EE926060EEA221D0EE926000E57
:10141000EA22EF5010E0DF501F0DF3CFE9FFF4CFC9
:10142000EAFF170EE926060EEA221E0EE926000E36
:10143000EA22EF0402E1AED3ADD3DF501F0DF3CFAC
:10144000E9FFF4CFEAFF170EE926060EEA22E9CFFC
:1014500014F0EACF15F0020EDB500F011424E96EF0
:10146000000E1520EA6EEF50350A01E1D0D2010AD4
:1014700001E1F0D1070A01E13CD1010A01E1F6D016
:10148000030A01E0F1D2FD0EDBCFE9FFFE0EDBCF58
:10149000EAFFE9CF14F0EACF15F0010EDBCFF3FF3E
:1014A000DB2AF3501424E96E000E1520EA6E500E6C
:1014B000EF6EFD0EDBCFE9FFFE0EDBCFEAFFE9CFDB
:1014C00014F0EACF15F0010EDBCFF3FFDB2AF35067
:1014D0001424E96E000E1520EA6E520EEF6EFD0E1A
:1014E000DBCFE9FFFE0EDBCFEAFFE9CF14F0EACF56
:1014F00015F0010EDBCFF3FFDB2AF3501424E96E65
:10150000000E1520EA6E4F0EEF6EFD0EDBCFE9FFE9
:10151000FE0EDBCFEAFFE9CF14F0EACF15F0010EA3
:10152000DBCFF3FFDB2AF3501424E96E000E152005
:10153000EA6E430EEF6EFD0EDBCFE9FFFE0EDBCF52
:10154000EAFFE9CF14F0EACF15F0010EDBCFF3FF8D
:10155000DB2AF3501424E96E000E1520EA6E550EB6
:10156000EF6EFD0EDBCFE9FFFE0EDBCFEAFFE9CF2A
:1015700014F0EACF15F0010EDBCFF3FFDB2AF350B6
:101580001424E96E000E1520EA6E520EEF6EFD0E69
:10159000DBCFE9FFFE0EDBCFEAFFE9CF14F0EACFA5
:1015A00015F0010EDBCFF3FFDB2AF3501424E96EB4
:1015B000000E1520EA6E450EEF6EFD0EDBCFE9FF43
:1015C000FE0EDBCFEAFFE9CF14F0EACF15F0010EF3
:1015D000DBCFF3FFDB2AF3501424E96E000E152055
:1015E000EA6E4D0EEF6EFD0EDBCFE9FFFE0EDBCF98
:1015F000EAFFE9CF14F0EACF15F0010EDBCFF3FFDD
:10160000DB2AF3501424E96E000E1520EA6E450E15
:10161000EF6EFD0EDBCFE9FFFE0EDBCFEAFFE9CF79
:1016200014F0EACF15F0010EDBCFF3FFDB2AF35005
:101630001424E96E000E1520EA6E4E0EEF6EFD0EBC
:10164000DBCFE9FFFE0EDBCFEAFFE9CF14F0EACFF4
:1016500015F0010EDBCFF3FFDB2AF3501424E96E03
:10166000000E1520EA6E540EEF6EFED1FD0EDBCF9C
:10167000E9FFFE0EDBCFEAFFE9CF14F0EACF15F069
:10168000010EDBCFF3FFDB2AF3501424E96E000ECA
:101690001520EA6E490EEF6EFD0EDBCFE9FFFE0E60
:1016A000DBCFEAFFE9CF14F0EACF15F0010EDBCF74
:1016B000F3FFDB2AF3501424E96E000E1520EA6EC6
:1016C000470EEF6EFD0EDBCFE9FFFE0EDBCFEAFF2C
:1016D000E9CF14F0EACF15F0010EDBCFF3FFDB2AE0
:1016E000F3501424E96E000E1520EA6E490EEF6ED9
:1016F000BBD1FD0EDBCFE9FFFE0EDBCFEAFFE9CF6A
:1017000014F0EACF15F0010EDBCFF3FFDB2AF35024
:101710001424E96E000E1520EA6E500EEF6EFD0ED9
:10172000DBCFE9FFFE0EDBCFEAFFE9CF14F0EACF13
:1017300015F0010EDBCFF3FFDB2AF3501424E96E22
:10174000000E1520EA6E4C0EEF6EFD0EDBCFE9FFAA
:10175000FE0EDBCFEAFFE9CF14F0EACF15F0010E61
:10176000DBCFF3FFDB2AF3501424E96E000E1520C3
:10177000EA6E410EEF6EFD0EDBCFE9FFFE0EDBCF12
:10178000EAFFE9CF14F0EACF15F0010EDBCFF3FF4B
:10179000DB2AF3501424E96E000E1520EA6E4E0E7B
:1017A000EF6EFD0EDBCFE9FFFE0EDBCFEAFFE9CFE8
:1017B00014F0EACF15F0010EDBCFF3FFDB2AF35074
:1017C0001424E96E000E1520EA6E4E0EEF6EFD0E2B
:1017D000DBCFE9FFFE0EDBCFEAFFE9CF14F0EACF63
:1017E00015F0010EDBCFF3FFDB2AF3501424E96E72
:1017F000000E1520EA6E490EEF6EFD0EDBCFE9FFFD
:10180000FE0EDBCFEAFFE9CF14F0EACF15F0010EB0
:10181000DBCFF3FFDB2AF3501424E96E000E152012
:10182000EA6E4E0EEF6EFD0EDBCFE9FFFE0EDBCF54
:10183000EAFFE9CF14F0EACF15F0010EDBCFF3FF9A
:10184000DB2AF3501424E96E000E1520EA6E470ED1
:10185000EF6E0AD1FD0EDBCFE9FFFE0EDBCFEAFF14
:10186000E9CF14F0EACF15F0010EDBCFF3FFDB2A4E
:10187000F3501424E96E000E1520EA6E500EEF6E40
:10188000FD0EDBCFE9FFFE0EDBCFEAFFE9CF14F060
:10189000EACF15F0010EDBCFF3FFDB2AF35014245F
:1018A000E96E000E1520EA6E520EEF6EFD0EDBCFD4
:1018B000E9FFFE0EDBCFEAFFE9CF14F0EACF15F027
:1018C000010EDBCFF3FFDB2AF3501424E96E000E88
:1018D0001520EA6E4F0EEF6EFD0EDBCFE9FFFE0E18
:1018E000DBCFEAFFE9CF14F0EACF15F0010EDBCF32
:1018F000F3FFDB2AF3501424E96E000E1520EA6E84
:10190000430EEF6EFD0EDBCFE9FFFE0EDBCFEAFFED
:10191000E9CF14F0EACF15F0010EDBCFF3FFDB2A9D
:10192000F3501424E96E000E1520EA6E450EEF6E9A
:10193000FD0EDBCFE9FFFE0EDBCFEAFFE9CF14F0AF
:10194000EACF15F0010EDBCFF3FFDB2AF3501424AE
:10195000E96E000E1520EA6E530EEF6EFD0EDBCF22
:10196000E9FFFE0EDBCFEAFFE9CF14F0EACF15F076
:10197000010EDBCFF3FFDB2AF3501424E96E000ED7
:101980001520EA6E530EEF6EFD0EDBCFE9FFFE0E63
:10199000DBCFEAFFE9CF14F0EACF15F0010EDBCF81
:1019A000F3FFDB2AF3501424E96E000E1520EA6ED3
:1019B000200EEF6EFD0EDBCFE9FFFE0EDBCFEAFF60
:1019C000E9CF14F0EACF15F0010EDBCFF3FFDB2AED
:1019D000F3501424E96E000E1520EA6E510EEF6EDE
:1019E000FD0EDBCFE9FFFE0EDBCFEAFFE9CF14F0FF
:1019F000EACF15F0010EDBCFF3FFDB2AF3501424FE
:101A0000E96E000E1520EA6E410EEF6E2DD0FD0E30
:101A1000DBCFE9FFFE0EDBCFEAFFE9CF14F0EACF20
:101A200015F0010EDBCFF3FFDB2AF3501424E96E2F
:101A3000000E1520EA6E540EEF6EFD0EDBCFE9FFAF
:101A4000FE0EDBCFEAFFE9CF14F0EACF15F0010E6E
:101A5000DBCFF3FFDB2AF3501424E96E000E1520D0
:101A6000EA6E410EEF6E00D0FD0EDBCFE9FFFE0EF9
:101A7000DBCFEAFFE9CF14F0EACF15F0010EDBCFA0
:101A8000F3FFDB2AF3501424E96E000E1520EA6EF2
:101A90003B0EEF6EFD0EDBCFE9FFFE0EDBCFEAFF64
:101AA000E9CF14F0EACF15F0010EDBCFF3FFDB2A0C
:101AB000F3501424E96E000E1520EA6E230EEF6E2B
:101AC000020EDB2ADF501F0DF3CFE9FFF4CFEAFF50
:101AD000170EE926060EEA22E9CF14F0EACF15F038
:101AE000020EDB501424E96E000E1520EA6EEF5052
:101AF00030E0DF501F0DF3CFE9FFF4CFEAFF170E00
:101B0000E926060EEA22E9CF16F0EACF17F0020E18
:101B1000DB501624E96E000E1720EA6EEF50E66ED9
:101B2000FD0EDBCFE9FFFE0EDBCFEAFFE9CF14F0BD
:101B3000EACF15F0010EDB501424E96E000E1520DB
:101B4000EA6EE552E750EF6E010EDB2A020EDB2A49
:101B5000B9D7FD0EDBCFE9FFFE0EDBCFEAFFE9CF01
:101B600014F0EACF15F0010EDB501424E96E000EDC
:101B70001520EA6EEF6ADFCF37F6FD0EDBCFE9FF07
:101B8000FE0EDBCFEAFF200EE926000EEA2237C662
:101B9000EFFF04D0030EDB2ADF2A21D4040EE15C20
:101BA00002E2E16AE552E16EE552E7CFD9FF1200A9
:101BB000D9CFE6FFE1CFD9FF040EE126020EE76E92
:101BC000FD0EDBCFE9FFFE0EDBCFEAFFE750E92693
:101BD000000EEA22EF5030080BE1FD0EDBCFE6FFEE
:101BE000FE0EDBCFE6FF5FEC12F0E552E552ABD222
:101BF000DF6A010EDF5C43E2DF501F0DF3CFE9FF28
:101C0000F4CFEAFF170EE926060EEA221D0EE9269A
:101C1000000EEA22EF5031E0DF501F0DF3CFE9FF55
:101C2000F4CFEAFF170EE926060EEA22E9CF14F0F8
:101C3000EACF15F014C0E6FF15C0E6FFFD0EDBCFBE
:101C4000E6FFFE0EDBCFE6FF92EC2AF0E552E5520E
:101C5000E552E552000911E1DF501F0DF3CFE9FF16
:101C6000F4CFEAFF170EE926060EEA221E0EE92639
:101C7000000EEA22EF0401E166D2DF2ABAD706019C
:101C80000051030A01E15BD1020A66E0010A01E0AA
:101C900059D20601010E346F060EF66E000EF76E75
:101CA0000900F5CF32F60A00F5CF33F60601010E32
:101CB000356F0601012BFD0EDBCFE6FFFE0EDBCFFD
:101CC000E6FF170EE66E060EE66EB2EC2AF0E5525F
:101CD000E552E552E5520601010E006FFD0EDBCF25
:101CE000E6FFFE0EDBCFE6FFEADBE552E552010E32
:101CF000E66EE66A010EE66EE66AAFEC12F0E552B9
:101D0000E552E552E552D950020FE96EDACFEAFF0B
:101D1000170EEE6E060EED6EDF6A1F0EDF5C1BE225
:101D2000DF50E76E020EDBCFE9FF030EDBCFEAFFE9
:101D3000E750E926000EEA22EF50E66EDFCFE6FF1D
:101D4000E66AE9EC2BF0E552E552E55210EC2EF094
:101D50000400DF2AE2D7F7D1DF6A010EDF5C27E259
:101D6000FD0EDBCFE6FFFE0EDBCFE6FFCFEC12F081
:101D7000E552E552010819E1FD0EDBCFE6FFFE0E4C
:101D8000DBCFE6FF9CDBE552E552060101510CE199
:101D90000601006BE66AE66AE66A010EE66EDFDBC4
:101DA000E552E552E552E552CED1DF2AD6D7DF6AB9
:101DB000010EDF5C01E3C2D0DF501F0DF3CFE9FF5E
:101DC000F4CFEAFF170EE926060EEA221D0EE926D9
:101DD000000EEA22EF5001E0AFD0DF501F0DF3CF2D
:101DE000E9FFF4CFEAFF170EE926060EEA221D0EE0
:101DF000E926000EEA22010EEF6E060EF66E000EC8
:101E0000F76E0900F5CF14F00800F5CF15F0DF509C
:101E10001F0DF3CFE9FFF4CFEAFF170EE926060EF8
:101E2000EA221B0EE926000EEA2214C0EEFF15C0BE
:101E3000EDFFDF501F0DF3CFE9FFF4CFEAFF170EE0
:101E4000E926060EEA221E0EE926000EEA22010EFF
:101E5000EF6EFD0EDBCFE6FFFE0EDBCFE6FFDF50C1
:101E60001F0DF3CFE9FFF4CFEAFF170EE926060EA8
:101E7000EA22E9CF14F0EACF15F014C0E6FF15C04E
:101E8000E6FFB2EC2AF0E552E552E552E552DF50AA
:101E90001F0DF3CF14F0F4CF15F0170E1426060E15
:101EA0001522020E14C0DBFF030E15C0DBFF010E6E
:101EB000DB6A1F0EF36E010EDBCFF4FFF350F45C10
:101EC00024E2010EDB50E76E020EDBCFE9FF030ECA
:101ED000DBCFEAFFE750E926000EEA22EF50E66E7C
:101EE000010EDBCFE6FF1F0EDF02F350E552E724C1
:101EF000E66EE66AE9EC2BF0E552E552E55210ECAD
:101F00002EF00400010EDB2AD4D70601012B010EAE
:101F1000E66EE66A010EE66EE66A21DBE552E55200
:101F2000E552E552FD0EDBCFE6FFFE0EDBCFE6FF0E
:101F3000C6DAE552E55202D0DF2A3AD704D1DF6A89
:101F4000010EDF5C37E2FD0EDBCFE6FFFE0EDBCFDE
:101F5000E6FF25DBE552E55201082AE1FD0EDBCF65
:101F6000E6FFFE0EDBCFE6FFAADAE552E5520601F8
:101F700002511DE1060101510DE10601006BE66A07
:101F8000E66AE66A010EE66EEADAE552E552E552E5
:101F9000E5520DD00601010E006FE66AE66A010EF9
:101FA000E66EE66ADCDAE552E552E552E552CBD060
:101FB000DF2AC6D7DF6A010EDF5C01E3C2D0DF5043
:101FC0001F0DF3CFE9FFF4CFEAFF170EE926060E47
:101FD000EA221D0EE926000EEA22EF5001E0AFD002
:101FE000DF501F0DF3CFE9FFF4CFEAFF170EE9260C
:101FF000060EEA221D0EE926000EEA22010EEF6E01
:10200000060EF66E000EF76E0900F5CF14F008000C
:10201000F5CF15F0DF501F0DF3CFE9FFF4CFEAFF46
:10202000170EE926060EEA221B0EE926000EEA220A
:1020300014C0EEFF15C0EDFFDF501F0DF3CFE9FF19
:10204000F4CFEAFF170EE926060EEA221E0EE92655
:10205000000EEA22010EEF6EFD0EDBCFE6FFFE0E54
:10206000DBCFE6FFDF501F0DF3CFE9FFF4CFEAFF30
:10207000170EE926060EEA22E9CF14F0EACF15F092
:1020800014C0E6FF15C0E6FFB2EC2AF0E552E552B7
:10209000E552E552DF501F0DF3CF14F0F4CF15F0E9
:1020A000170E1426060E1522020E14C0DBFF030EB7
:1020B00015C0DBFF010EDB6A1F0EF36E010EDBCFD6
:1020C000F4FFF350F45C24E2010EDB50E76E020EE5
:1020D000DBCFE9FF030EDBCFEAFFE750E926000E76
:1020E000EA22EF50E66E010EDBCFE6FF1F0EDF02A5
:1020F000F350E552E724E66EE66AE9EC2BF0E55290
:10210000E552E55210EC2EF00400010EDB2AD4D784
:102110000601012B010EE66E010EE66EE66AE66A26
:102120001EDAE552E552E552E552FD0EDBCFE6FF41
:10213000FE0EDBCFE6FFC3D9E552E55202D0DF2A1F
:102140003AD701D000D0040EE15C02E2E16AE55228
:10215000E16EE552E7CFD9FF1200D9CFE6FFE1CF1C
:10216000D9FF040EE126DF6A010EDF5C43E2DF5097
:102170001F0DF3CFE9FFF4CFEAFF170EE926060E95
:10218000EA221D0EE926000EEA22EF5031E0DF5070
:102190001F0DF3CFE9FFF4CFEAFF170EE926060E75
:1021A000EA22E9CF14F0EACF15F014C0E6FF15C01B
:1021B000E6FFFD0EDBCFE6FFFE0EDBCFE6FF92EC87
:1021C0002AF0E552E552E552E552000911E1DF50EF
:1021D0001F0DF3CFE9FFF4CFEAFF170EE926060E35
:1021E000EA221E0EE926000EEA22EF0401E16BD07E
:1021F000DF2ABAD706010051030A2DE0020A01E0E6
:1022000062D0DF6A010EDF5C25E2FD0EDBCFE6FF68
:10221000FE0EDBCFE6FFC3D9E552E552010818E117
:10222000FD0EDBCFE6FFFE0EDBCFE6FF48D9E55221
:10223000E552060101510BE1006BE66AE66AE66AC7
:10224000010EE66E8CD9E552E552E552E5523BD0DF
:10225000DF2AD8D738D0DF6A010EDF5C33E2FD0E0B
:10226000DBCFE6FFFE0EDBCFE6FF99D9E552E55264
:10227000010826E1FD0EDBCFE6FFFE0EDBCFE6FF19
:102280001ED9E552E5520601025119E101510CE156
:10229000006BE66AE66AE66A010EE66E60D9E55210
:1022A000E552E552E5520BD0010E006FE66AE66A90
:1022B000E66EE66A54D9E552E552E552E55203D09E
:1022C000DF2ACAD700D0040EE15C02E2E16AE552DF
:1022D000E16EE552E7CFD9FF1200D9CFE6FFE1CF9B
:1022E000D9FF020EE12604010451035D0BE1FD0E4E
:1022F000DBCFE9FFFE0EDBCFEAFFEE6AED6A010EEF
:10230000DB6A2FD003511A0DF3CF14F0F4CF15F080
:10231000050E1426040E1522FD0EDBCFE9FFFE0E7E
:10232000DBCFEAFF14C0EEFF15C0EDFF03511A0D1D
:10233000F3CF14F0F4CF15F0050E1426040E152279
:1023400014C0E6FF15C0E6FFECEC2AF0E552E552BA
:10235000010EF3CFDBFF0401032B0A0E035D01E343
:10236000036B010EDB50146E020EE15C03E200D041
:10237000E16AE552E16E1450E552E7CFD9FF120051
:10238000D9CFE6FFE1CFD9FF0401000502E1000E3D
:102390000AD0010E006FFE0EDBCF02F4FD0EDBCF84
:1023A00001F4010E00D0E552E7CFD9FF1200D9CFDA
:1023B000E6FFE1CFD9FFE652FE0EDB501F0DF3CF53
:1023C000E9FFF4CFEAFF170EE926060EEA221E0EF9
:1023D000E926000EEA22EF6AFE0EDB501F0DF3CF56
:1023E000E9FFF4CFEAFF170EE926060EEA22E9CF4D
:1023F00014F0EACF15F014C0E6FF15C0E6FF5FD871
:10240000E552E552FE0EDB501F0DF3CFE9FFF4CF8E
:10241000EAFF170EE926060EEA221E0EE926000E36
:10242000EA22EF50E66EFE0EDB501F0DF3501E0F3A
:10243000E66EE66AE9EC2BF0E552E552E55210EC67
:102440002EF00400DF6A010EDF5C13E2DF501F0D87
:10245000F3CFE9FFF4CFEAFF170EE926060EEA22D2
:102460001E0EE926000EEA22EF0401E103D0DF2A66
:10247000EAD78096E552E552E7CFD9FF1200D9CFCF
:10248000E6FFE1CFD9FFE652FE0EDB501F0DF3CF82
:10249000E9FFF4CFEAFF170EE926060EEA22E9CF9C
:1024A00014F0EACF15F014C0E6FF15C0E6FF55DEC4
:1024B000E552E552E552E552E7CFD9FF1200D9CFF8
:1024C000E6FFE1CFD9FFE652DF6AFD0EDBCFE9FF81
:1024D000FE0EDBCFEAFFEF5024E0FD0EDBCFE9FF7D
:1024E000FE0EDBCFEAFFEF50E66E040104511A0D39
:1024F000F3CF14F0F4CF15F0050E1426040E1522B8
:10250000DF500F011424E96E000E1520EA6EE5522B
:10251000E750EF6EDF2AFD0EDB2AFE0E01E3DB2A19
:10252000D4D7040104511A0DF3CF14F0F4CF15F0F1
:10253000050E1426040E1522DF500F011424E96E37
:10254000000E1520EA6EEF6A0401042B0A0E045DEA
:1025500001E3046BE552E552E7CFD9FF1200D9CF72
:10256000E6FFE1CFD9FFFE0EDB50E8B08080E8A0A7
:102570008090FD0EDB50E8B08082E8A08092FC0ED7
:10258000DB50E8B08084E8A08094FB0EDB50E8B01C
:102590008086E8A08096E552E7CFD9FF1200D9CF18
:1025A000E6FFE1CFD9FF040EE126DF6A010EDF5C12
:1025B00001E3F6D0DF501F0DF3CFE9FFF4CFEAFFC0
:1025C000170EE926060EEA221D0EE926000EEA2263
:1025D000EF5001E1E3D0DF501F0DF3CFE9FFF4CF5F
:1025E000EAFF170EE926060EEA221E0EE926000E65
:1025F000EA22EF0401E1D2D0DF501F0DF3CFE9FF53
:10260000F4CFEAFF170EE926060EEA22E9CF14F00E
:10261000EACF15F014C0E6FF15C0E6FFFD0EDBCFD4
:10262000E6FFFE0EDBCFE6FF92EC2AF0E552E55224
:10263000E552E552000901E0B1D0DF501F0DF3CFA4
:10264000E9FFF4CFEAFF170EE926060EEA221D0E77
:10265000E926000EEA22EF0403E10601010713D088
:10266000DF501F0DF3CFE9FFF4CFEAFF170EE92685
:10267000060EEA221D0EE926000EEA22EF5003089C
:1026800002E106010207DF501F0DF3CFE9FFF4CF8F
:10269000EAFF170EE926060EEA221D0EE926000EB5
:1026A000EA22EF6ADF501F0DF3CFE9FFF4CFEAFF14
:1026B000170EE926060EEA221B0EE926000EEA2274
:1026C000EE6AED6ADF501F0DF3CFE9FFF4CFEAFFAA
:1026D000170EE926060EEA221E0EE926000EEA2251
:1026E000EF6A1B0EE66EE66AE66ADF501F0DF3CF57
:1026F000E9FFF4CFEAFF170EE926060EEA22E9CF3A
:1027000014F0EACF15F014C0E6FF15C0E6FF78EC30
:102710002AF0166E050EE15E16500400DF501F0D04
:10272000F3CF14F0F4CF15F0170E1426060E152271
:10273000020E14C0DBFF030E15C0DBFF010EDB6AC7
:102740001F0EF36E010EDBCFF4FFF350F45C24E2B6
:10275000010EDB50E76E020EDBCFE9FF030EDBCF8D
:10276000EAFFE750E926000EEA22EF50E66E010E7E
:10277000DBCFE6FF1F0EDF02F350E552E724E66EE3
:10278000E66AE9EC2BF0E552E552E55210EC2EF04A
:102790000400010EDB2AD4D7010E04D0DF2A06D7AD
:1027A000000E00D0146E040EE15C02E2E16AE55214
:1027B000E16E1450E552E7CFD9FF1200D9CFE6FF02
:1027C000E1CFD9FF020EE126010EDB6ADF6A010EBE
:1027D000DF5C5BE2DF501F0DF3CFE9FFF4CFEAFFD0
:1027E000170EE926060EEA221D0EE926000EEA2241
:1027F000EF0449E1DF501F0DF3CFE9FFF4CFEAFF0B
:10280000170EE926060EEA221B0EE926000EEA2222
:10281000EE50ED1038E10601022B06010107DF50F2
:102820001F0DF3CFE9FFF4CFEAFF170EE926060EDE
:10283000EA221D0EE926000EEA22030EEF6EDF509B
:102840001F0DF3CFE9FFF4CFEAFF170EE926060EBE
:10285000EA221D0EE926000EEA22EF50E66E1F0E58
:10286000DF02F3501D0FE66EE66AE9EC2BF0E5524D
:10287000E552E55210EC2EF004000601030E006F45
:10288000DE52010EDD6EDF2AA2D7010EDB5000D032
:10289000146E020EE15C02E2E16AE552E16E145050
:1028A000E552E7CFD9FF1200D9CFE6FFE1CFD9FF3C
:1028B000FD0EDBCFE6FFFE0EDBCFE6FF0D0EE66E74
:1028C000060EE66E92EC2AF0E552E552E552E5522C
:1028D000000902E0000E02D0010E00D0E552E7CF61
:1028E000D9FF1200D9CFE6FFE1CFD9FF020EE126D2
:1028F0000601006B0601016B0601026B0601036B0A
:10290000046B056B066B0601076B086B096B0A6BA2
:102910000601376B0401046B0401036BDE6ADD6A98
:10292000DECF14F0DDCF15F0010E145C000E15584B
:1029300070E2DECFE9FFDDCFEAFF1F0EEA02F3CF40
:10294000EAFF1F0EE902F3CFE9FFF450EA26170E63
:10295000E926060EEA221D0EE926000EEA22EF6A9B
:10296000DECFE9FFDDCFEAFF1F0EEA02F3CFEAFF79
:102970001F0EE902F3CFE9FFF450EA26170EE9260D
:10298000060EEA221B0EE926000EEA22EE6AED6A26
:10299000DECFE9FFDDCFEAFF1F0EEA02F3CFEAFF49
:1029A0001F0EE902F3CFE9FFF450EA26170EE926DD
:1029B000060EEA221E0EE926000EEA22EF6A1B0E20
:1029C000E66EE66AE66ADECFE9FFDDCFEAFF1F0EBC
:1029D000EA02F3CFEAFF1F0EE902F3CFE9FFF4505A
:1029E000EA26170EE926060EEA22E9CF14F0EACF0E
:1029F00015F014C0E6FF15C0E6FF78EC2AF0166E5D
:102A0000050EE15E16500400DF2A010E01E3DB2A09
:102A100087D7DE6ADD6ADECF14F0DDCF15F01F0E3A
:102A2000145C000E155812E2E66ADECFE6FFDDCF39
:102A3000E6FFE9EC2BF0E552E552E55210EC2EF002
:102A40000400DF2A010E01E3DB2AE5D70601360583
:102A50000BE1E66AE66AE66A010EE66E80DDE552A3
:102A6000E552E552E55209D0E66AE66AE66AE66AA8
:102A700076DDE552E552E552E552020EE15C02E2F6
:102A8000E16AE552E16EE552E7CFD9FF1200D9CFF6
:102A9000E6FFE1CFD9FF030EE126FD0EDBCFE9FF14
:102AA000FE0EDBCFEAFF010EEFCFDBFF020EDB6A8B
:102AB000010EDB50A00A01E136D1330A01E101D158
:102AC000100A01E1E6D0010A01E1CBD0030A01E1DD
:102AD000B0D0130A6CE0030A28E0300A1AE0210A99
:102AE00001E02CD1F90EDBCFE6FFFA0EDBCFE6FFDB
:102AF0006DEC11F0E552E552E76E020EE7CFDBFF19
:102B0000FB0EDBCFE9FFFC0EDBCFEAFF800EEF6EA2
:102B100020D1E8DEFB0EDBCFE9FFFC0EDBCFEAFFC6
:102B2000A10EEF6E020EDB6A14D1DF6A040EDF5CC9
:102B300033E2DF28E76EFD0EDBCFE9FFFE0EDBCFD1
:102B4000EAFFE750E926000EEA22EF50E66E210E7A
:102B5000DF24E66EE66AE9EC2BF0E552E552E55239
:102B600010EC2EF00400DF28E76EFD0EDBCFE9FF4E
:102B7000FE0EDBCFEAFFE750E926000EEA22EF5017
:102B8000E66EDF50EA6A0D0FE96E060EEA22E552A4
:102B9000E750EF6EDF2ACAD7020EDB6AFB0EDBCFEF
:102BA000E9FFFC0EDBCFEAFF910EEF6ED2D0DF6AB9
:102BB000040EDF5C33E2DF28E76EFD0EDBCFE9FFBA
:102BC000FE0EDBCFEAFFE750E926000EEA22EF50C7
:102BD000E66E250EDF24E66EE66AE9EC2BF0E552A0
:102BE000E552E55210EC2EF00400DF28E76EFD0EF2
:102BF000DBCFE9FFFE0EDBCFEAFFE750E926000E50
:102C0000EA22EF50E66EDF50EA6A120FE96E060E16
:102C1000EA22E552E750EF6EDF2ACAD7020EDB6ADE
:102C2000FB0EDBCFE9FFFC0EDBCFEAFF920EEF6E6F
:102C300090D0F90EDBCFE9FFFA0EDBCFEAFF0D0EE5
:102C4000EE6E060EED6E040EF36E020EF3CFDBFF9A
:102C5000FB0EDBCFE9FFFC0EDBCFEAFF810EEF6E50
:102C600078D0F90EDBCFE9FFFA0EDBCFEAFF120EC8
:102C7000EE6E060EED6E040EF36E020EF3CFDBFF6A
:102C8000FB0EDBCFE9FFFC0EDBCFEAFF820EEF6E1F
:102C900060D0F90EDBCFE9FFFA0EDBCFEAFF380E8A
:102CA000EE6E060EED6E010EF36E020EF3CFDBFF3D
:102CB000FB0EDBCFE9FFFC0EDBCFEAFF830EEF6EEE
:102CC00048D0010EE76EFD0EDBCFE9FFFE0EDBCF35
:102CD000EAFFE750E926000EEA22EF50E66E2A0EE0
:102CE000E66EE66AE9EC2BF0E552E552E55210ECAF
:102CF0002EF00400010EE76EFD0EDBCFE9FFFE0EA5
:102D0000DBCFEAFFE750E926000EEA22EFCF38F6E4
:102D1000020EDB6AFB0EDBCFE9FFFC0EDBCFEAFF26
:102D2000930EEF6E16D0020EDB6AFB0EDBCFE9FFCF
:102D3000FC0EDBCFEAFFA00EEF6E0BD0020EDB6ABB
:102D4000FB0EDBCFE9FFFC0EDBCFEAFF920EEF6E4E
:102D500000D0020EDB5000D0146E030EE15C02E2E4
:102D6000E16AE552E16E1450E552E7CFD9FF120057
:102D7000080EE66EE2EC23F0E552E66AD2EC1EF0B5
:102D8000E55280EC1EF093EF1EF0D9CFE6FFE1CFC5
:102D9000D9FF0A0EE126DF68D950020FE66E000E59
:102DA000DA20E66ED950030FE66E000EDA20E66EEA
:102DB000F6EC26F0E552E552E552E552000902E153
:102DC000DAEF1BF0020EDBCFE6FF030EDBCFE6FFF0
:102DD000E4EC1BF0E552E552DF6EFF0EDF5C02E132
:102DE000DAEF1BF0010100510C0A02E1C0EF1BF009
:102DF000070A02E116EF1BF0090A01E1CFD3030A2B
:102E000001E174D30B0A01E151D3030A01E1E7D2D6
:102E10000D0A01E196D2090A01E158D2050A01E141
:102E20001AD20F0A01E185D1010A01E146D1030A54
:102E300001E1C1D0060A01E17ED0030A02E0DAEF27
:102E40001BF0080EDF5C0FE1235100080BE2DFCF1F
:102E5000E6FFF4EC23F0E552010123074751000897
:102E600001E2470766D00A0EDF5C10E1235100083B
:102E70000CE207EC1EF0020EE66ED2EC1EF0E552FC
:102E800080EC1EF00101030E006F53D00C0EDF5CCE
:102E90001CE1690EE66E010EE66EC8EC09F0E55223
:102EA000E552FF0E0101895D0FE0690EE66E010E2D
:102EB000E66EA4EC1EF0E552E55280EC1EF093ECB9
:102EC0001EF001010D0E006F34D00B0EDF5C1CE113
:102ED000480EE66E010EE66EA4EC04F0E552E552F3
:102EE000FF0E0101685D0FE0480EE66E010EE66E12
:102EF000A4EC1EF0E552E55280EC1EF093EC1EF0BF
:102F00000101080E006F15D02351EA6A020FE96E25
:102F1000010EEA22DFCFEFFF2351EA6A020FE96ECA
:102F2000010EEA22EF50E66EF4EC23F0E5520101C7
:102F3000232BDAEF1BF0080EDF5C16E123510008AB
:102F400008E2DFCFE6FFF4EC23F0E55201012307AE
:102F50000AD0E66AD2EC1EF0E55280EC1EF00101C8
:102F6000020E476F006B25D00A0EDF5C0DE107EC07
:102F70001EF0040EE66ED2EC1EF0E55280EC1EF060
:102F80000101050E006F15D02351EA6A020FE96EA8
:102F9000010EEA22DFCFEFFF2351EA6A020FE96E4A
:102FA000010EEA22EF50E66EF4EC23F0E552010147
:102FB000232BDAEF1BF0080EDF5C18E12351000829
:102FC00008E2DFCFE6FFF4EC23F0E552010123072E
:102FD0000CD0020EE66ED2EC1EF0E55280EC1EF034
:102FE0000101040E476F030E006F66D0DF50350AF3
:102FF00051E0010A3DE0070A29E0010A15E0030A51
:1030000001E05AD0050EE66E18EC1FF0E552010102
:103010004751EA6A260FE96E010EEA22310EEF6E81
:10302000472B060E006F48D0060EE66E18EC1FF018
:10303000E55201014751EA6A260FE96E010EEA22C4
:10304000320EEF6E472B060E006F36D00F0EE66E77
:1030500018EC1FF0E55201014751EA6A260FE96EAC
:10306000010EEA22330EEF6E472B060E006F24D0BE
:10307000100EE66E18EC1FF0E55201014751EA6AA6
:10308000260FE96E010EEA22340EEF6E472B060E74
:10309000006F12D0110EE66E18EC1FF0E552010120
:1030A0004751EA6A260FE96E010EEA22350EEF6EED
:1030B000472B060E006F00D07DD3080EDF5C0DE1BC
:1030C000040EE66ED2EC1EF0E55280EC1EF093EC9E
:1030D0001EF00101050E006F2BD00A0EDF5C28E107
:1030E0004705EA6A260FE96E010EEA22EF5034081E
:1030F0000BE1080EE66ED2EC1EF0E55280EC1EF0FD
:103100000101070E006F14D051EC1EF0260EE66E82
:10311000010EE66ED8EC0DF0E552E552E66AD2EC0F
:103120001EF0E55280EC1EF093EC1EF00101006BE6
:1031300041D3080EDF5C18E12351000808E2DFCF1D
:10314000E6FFF4EC23F0E552010123070AD0040E58
:10315000E66ED2EC1EF0E55280EC1EF00101050E89
:10316000006F2469256B76D00A0EDF5C1AE12351CB
:10317000000814E251EC1EF0260EE66E010EE66E1B
:10318000D8EC0DF0E552E552E66AD2EC1EF0E552BD
:1031900080EC1EF093EC1EF00101006B2469256B9E
:1031A00059D0030EDB50245D3DE1280EF36E020E74
:1031B000DBCFF4FFF350F45C1DE223072351EA6AEE
:1031C000020FE96E010EEA22DFCFEFFF080EE66E76
:1031D000F4EC23F0E55201012351EA6A020FE96E93
:1031E000010EEA22EF50E66EF4EC23F0E552010105
:1031F000232B17D02351EA6A020FE96E010EEA224F
:10320000DFCFEFFF2351EA6A020FE96E010EEA22D7
:10321000EF50E66EF4EC23F0E5520101232B246914
:10322000256B18D02351EA6A020FE96E010EEA22DB
:10323000DFCFEFFF2351EA6A020FE96E010EEA22A7
:10324000EF50E66EF4EC23F0E5520101232B030E60
:10325000DBCF24F1AFD2080EDF5C0BE1E66AD2ECE3
:103260001EF0E55280EC1EF093EC1EF00101006BA5
:103270002CD00C0EDF5C15E1480EE66E010EE66EFA
:10328000A4EC04F0E552E552FF0E0101685D08E090
:10329000480EE66E010EE66EA4EC1EF0E552E55215
:1032A00014D00A0EDF5C11E168C1E6FFD7EC11F023
:1032B000E55201016869E66AD2EC1EF0E55280EC45
:1032C0001EF093EC1EF00101006B74D2300EDF5C37
:1032D0000BE1E66AD2EC1EF0E55280EC1EF093ECB6
:1032E0001EF00101006B2CD0080EDF5C15E1690EA9
:1032F000E66E010EE66EC8EC09F0E552E552FF0EEF
:103300000101895D08E0690EE66E010EE66EA4EC2F
:103310001EF0E552E55214D00A0EDF5C11E189C1BE
:10332000E6FF3FEC12F0E55201018969E66AD2EC52
:103330001EF0E55280EC1EF093EC1EF00101006BD4
:1033400039D2080EDF5C18E12351000808E2DFCF14
:10335000E6FFF4EC23F0E552010123070CD0020E46
:10336000E66ED2EC1EF0E55280EC1EF093EC1EF0FF
:103370000101030E006F32D00A0EDF5C1AE1235107
:10338000000816E251EC1EF0260EE66E010EE66E07
:10339000D8EC0DF0E552E552020EE66ED2EC1EF0CE
:1033A000E55280EC1EF093EC1EF00101030E006F5D
:1033B00015D02351EA6A020FE96E010EEA22DFCF2F
:1033C000EFFF2351EA6A020FE96E010EEA22EF5085
:1033D000E66EF4EC23F0E5520101232BEBD1080E4D
:1033E000DF5C18E12351000808E2DFCFE6FFF4ECD0
:1033F00023F0E552010123070CD0040EE66ED2EC57
:103400001EF0E55280EC1EF00101050E006F020E69
:10341000476F4BD00A0EDF5C1AE12351000816E219
:1034200051EC1EF0260EE66E010EE66ED8EC0DF0A5
:10343000E552E552020EE66ED2EC1EF0E55280EC4B
:103440001EF093EC1EF00101030E006F2ED02351ED
:10345000EA6A020FE96E010EEA22DFCFEFFF235185
:10346000EA6A020FE96E010EEA22EF50E66EF4EC12
:1034700023F0E552140EF36E050EF3CFDBFF060EBC
:10348000DB6A050EDBCF14F0DB06060EDBCF15F092
:1034900001E2DB061450151006E0040EE66EBEECE9
:1034A0002DF0E552EED70101232B84D1080EDF5C0D
:1034B0000BE1020EE66ED2EC1EF0E55280EC1EF03F
:1034C0000101030E006F11D00A0EDF5C0EE172ECF9
:1034D00014F080EC1EF093EC1EF0020EE66ED2ECBF
:1034E0001EF0E5520101030E006F64D1080EDF5C8F
:1034F0001CE1235100080CE2DFCFE6FFF4EC23F0DF
:10350000E552010123074751020801E247070CD0A9
:1035100001510AE1E66AD2EC1EF0E55280EC1EF0A1
:1035200093EC1EF001C100F138D00A0EDF5C17E108
:103530002351000813E20C0EE66ED2EC1EF0E552A9
:10354000DFDB01014751472BEA6A260FE96E010EC6
:10355000EA22EF6A010E016F0B0E006F1ED023519D
:10356000EA6A020FE96E010EEA22DFCFEFFF235174
:10357000EA6A020FE96E010EEA22EF50E66EF4EC01
:1035800023F0E55201014751472BEA6A260FE96E05
:10359000010EEA22DFCFEFFF232B0CD1080EDF5CF8
:1035A00015E12351000808E2DFCFE6FFF4EC23F039
:1035B000E5520101230709D0040EE66ED2EC1EF09D
:1035C000E5529EDBB0DB01C100F12FD00A0EDF5CBB
:1035D0000EE1235100080AE20C0EE66EE3DBE55231
:1035E0008FDB0101020E016F0B0E006F1ED0235105
:1035F000EA6A020FE96E010EEA22DFCFEFFF2351E4
:10360000EA6A020FE96E010EEA22EF50E66EF4EC70
:1036100023F0E55201014751472BEA6A260FE96E74
:10362000010EEA22DFCFEFFF232BC4D0080EDF5CB0
:103630001AE1010508E1E66AB5DBE55261DB73DBFF
:103640000101006B0FD0020E015D03E0030E015D6E
:1036500009E1040EE66EA6DBE55252DB64DB0101F4
:10366000050E006F8CD00A0EDF5C01E079D023518B
:10367000EA6A020FE96E010EEA22EF6A010528E10B
:10368000070EDB6A260EE66E010EE66E020EE66E91
:10369000010EE66E73EC02F0E552E552E552E5529A
:1036A000E76E070EE7CFDBFFDB040AE1040EE66EF0
:1036B00079DBE55225DB37DB0101050E006F07D012
:1036C000E66A70DBE5521CDB2EDB0101006B47D0A4
:1036D000020E015D28E1080EDB6A260EE66E010E81
:1036E000E66E020EE66E010EE66E0FEC03F0E5529A
:1036F000E552E552E552E76E080EE7CFDBFFDB044B
:1037000008E1E66A4FDBE552FBDA0DDB0101006BF5
:1037100009D0040EE66E46DBE552F2DA04DB010165
:10372000050E006F1CD0070E015D19E1090EDB6A62
:10373000020EE66E010EE66E54EC14F0E552E55210
:10374000E76E090EE7CFDBFFDB0409E10D0EE66E45
:1037500029DBE552D5DAE7DA01010C0E006F0FD054
:103760002351EA6A020FE96E010EEA22DFCFEFFF72
:103770002A0EE66EF4EC23F0E5520101232B1AD059
:10378000080EDF5C0AE1020EE66E0CDBE552B8DAE9
:10379000CADA0101030E006F0CD0300EDF5C09E1C4
:1037A0000B0EE66EFFDAE552ABDABDDA01010A0E66
:1037B000006F00D00A0EE15C02E2E16AE552E16EC0
:1037C000E552E7CFD9FF1200D9CFE6FFE1CFD9FF0D
:1037D000E652DF68010100510C0A01E1BFD1060A7F
:1037E00001E1A6D1010A01E194D1020A01E16DD102
:1037F000040A01E151D1050A01E135D10F0A01E1C5
:10380000F9D0010A01E1E0D0030A01E1B8D0010AD0
:1038100001E1A0D0070A01E184D0010A50E0030AC7
:103820001CE0010A01E0B3D1FE0EDB50050DF3CF21
:10383000F6FFF4CFF7FF900EF626590EF722080098
:10384000F550DF6E020E235D07E3080EDF5C04E037
:103850000A0EDF5C01E0DF689AD1FE0EDB50245DCA
:1038600010E1280EF36EFD0EDBCFF4FFF350F45C95
:1038700006E2252B050E255D01E3256B01D0256BA6
:1038800001D0256BFE0EDB50050DF3CF14F0F4CF05
:1038900015F0900E1426590E152225510F011424EF
:1038A000F66E000E1520F76E0800F550DF6E0B0E59
:1038B000DF5C03E00C0EDF5C01E1DF6868D1FE0E27
:1038C000DB50245D10E1280EF36EFD0EDBCFF4FF1C
:1038D000F350F45C06E2252B050E255D01E3256B14
:1038E00001D0256B01D0256BFE0EDB50050DF3CF0B
:1038F00014F0F4CF15F0900E1426590E1522255110
:103900000F011424F66E000E1520F76E0800F55016
:10391000DF6E0B0EDF5C03E00C0EDF5C01E1DF68A5
:1039200036D1FE0EDB50050DF3CFF6FFF4CFF7FFD7
:10393000900EF626590EF7220800F550DF6E020EA3
:10394000235D07E3080EDF5C04E00A0EDF5C01E0A4
:10395000DF681DD1FE0EDB50050DF3CFF6FFF4CF6F
:10396000F7FF900EF626590EF7220800F550DF6E8D
:10397000235104E10A0EDF5C01E1DF6808D1FE0E8D
:10398000DB50050DF3CFF6FFF4CFF7FF900EF626D0
:10399000590EF7220800F550DF6E310EDF5C13E0A0
:1039A000320EDF5C10E0330EDF5C0DE0340EDF5CC6
:1039B0000AE0350EDF5C07E0080EDF5C04E00A0E6B
:1039C000DF5C01E0DF68E3D0FE0EDB50050DF3CFD6
:1039D000F6FFF4CFF7FF900EF626590EF7220800F7
:1039E000F550DF6E0A0EDF5C04E0080EDF5C01E0DC
:1039F000DF68CDD00C0EDF5C03E00B0EDF5C02E174
:103A0000DF681BD00A0EDF5C03E0080EDF5C02E11A
:103A1000256B13D0FE0EDB50245D0EE1280EF36EF5
:103A2000FD0EDBCFF4FFF350F45C05E2252B050E11
:103A3000255D01E3256B01D0256BFE0EDB50050DE6
:103A4000F3CF14F0F4CF15F0900E1426590E152272
:103A500025510F011424F66E000E1520F76E080094
:103A6000F550DF6E94D0FE0EDB50050DF3CFF6FF60
:103A7000F4CFF7FF900EF626590EF7220800F55006
:103A8000DF6E0A0EDF5C07E0080EDF5C04E00C0E60
:103A9000DF5C01E0DF687BD0FE0EDB50050DF3CF6D
:103AA000F6FFF4CFF7FF900EF626590EF722080026
:103AB000F550DF6E0A0EDF5C07E0080EDF5C04E005
:103AC000300EDF5C01E0DF6862D0FE0EDB50050DDA
:103AD000F3CFF6FFF4CFF7FF900EF626590EF7223C
:103AE0000800F550DF6E020E235D08E20B0EDF5C6E
:103AF00003E00C0EDF5C01E1DF680AD0020E235DFB
:103B000007E3080EDF5C04E00A0EDF5C01E0DF681B
:103B10003ED0FE0EDB50050DF3CFF6FFF4CFF7FFDE
:103B2000900EF626590EF7220800F550DF6E2FD0C2
:103B3000FE0EDB50050DF3CFF6FFF4CFF7FF900E2E
:103B4000F626590EF7220800F550DF6E0A0EDF5CEC
:103B500004E0080EDF5C01E0DF6819D0FE0EDB50E8
:103B6000050DF3CFF6FFF4CFF7FF900EF626590EB2
:103B7000F7220800F550DF6E300EDF5C07E0080E1C
:103B8000DF5C04E00A0EDF5C01E0DF6800D0DF509C
:103B900000D0E552E552E7CFD9FF1200D9CFE6FFBA
:103BA000E1CFD9FFFE0EDB50050A23E0020A17E041
:103BB000070A0DE0030A01E026D0020EE66EF2D8F5
:103BC000E5529ED8B0D80101030E006F1CD0E66A02
:103BD000E9D8E55295D8A7D80101006B14D0080E9A
:103BE000E66EE0D8E5528CD89ED80101070E006F32
:103BF0000AD0040EE66ED6D8E55282D894D80101D8
:103C0000050E006F00D0E552E7CFD9FF1200D9CFE3
:103C1000E6FFE1CFD9FF020EE126010EDB6A0101CA
:103C2000230513E14751EA6A260FE96E010EEA22E5
:103C3000300EEF6E472B4751EA6A260FE96E010EF0
:103C4000EA2202C1EFFF472B12D04751EA6A260F42
:103C5000E96E010EEA2202C1EFFF472B4751EA6AE3
:103C6000260FE96E010EEA2203C1EFFF472B300E4B
:103C7000275D146E300E265D0A0DF3501424E76E96
:103C8000010EE7CFDBFFDB50146E020EE15C03E2B6
:103C900000D0E16AE552E16E1450E552E7CFD9FF5A
:103CA0001200D9CFE6FFE1CFD9FFE652DF6A01016A
:103CB0002351DF5C14E2DF50EA6A020FE96E010E65
:103CC000EA22EF50E66E4751EA6A260FE96E010ECE
:103CD000EA22E552E750EF6E472BDF2AE8D747513B
:103CE000EA6A260FE96E010EEA22EF6A472B200EE0
:103CF000475D01E3476BE552E552E7CFD9FF12007C
:103D0000200EE66EE66AE66A020EE66E010EE66ECA
:103D100078EC2AF0146E050EE15E14500101236B5D
:103D2000256B24691200200EE66EE66AE66A260E0E
:103D3000E66E010EE66E78EC2AF0146E050EE15E7A
:103D400014500101476B1200D9CFE6FFE1CFD9FF34
:103D5000E652EDEC23F0DF6ADF50E76EFD0EDBCFBD
:103D6000E9FFFE0EDBCFEAFFE750E926000EEA226C
:103D7000EF5013E0DF50E76EFD0EDBCFE9FFFE0EE4
:103D8000DBCFEAFFE750E926000EEA22EF50E66EAD
:103D9000F4EC23F0E552DF2ADFD7E552E552E7CF16
:103DA000D9FF1200D9CFE6FFE1CFD9FF030EE126FC
:103DB000FE0EEA6ADB34FE0BEA36E96E000EE926F7
:103DC0000F0EEA22010EEECFDBFF020EEDCFDBFF7E
:103DD000EDEC23F0DF6ADF50E76E010EDBCFF6FF7C
:103DE000020EDBCFF7FFE750F626000EF7220800A1
:103DF000F55014E0DF50E76E010EDBCFF6FF020E48
:103E0000DBCFF7FFE750F626000EF7220800F5504B
:103E1000E66EF4EC23F0E552DF2ADDD7030EE15C19
:103E200002E2E16AE552E16EE552E7CFD9FF120006
:103E3000D9CFE6FFE1CFD9FF030EE126FE0EEA6AF5
:103E4000DB34FE0BEA36E96E000EE9260F0EEA229D
:103E5000010EEECFDBFF020EEDCFDBFFDF6ADF509E
:103E6000E76E010EDBCFF6FF020EDBCFF7FFE75068
:103E7000F626000EF7220800F55014E0DF50E76E3A
:103E8000010EDBCFF6FF020EDBCFF7FFE750F62681
:103E9000000EF7220800F550E66EF4EC23F0E55230
:103EA000DF2ADDD7030EE15C02E2E16AE552E16E52
:083EB000E552E7CFD9FF120033
:083EB800DACFE4FFE2CFDAFFEC
:103EC000E9CFE4FFEACFE4FFF6CFE4FFF7CFE4FF6A
:103ED000F5CFE4FFF3CFE4FFF4CFE4FFFACFE4FF44
:103EE00000EE00F0140EE80403E3EECFE4FFFBD78E
:103EF00000EE14F0080EE80403E3EECFE4FFFBD776
:103F0000E652D9CFE6FFE1CFD9FFE6520FEC2DF014
:103F1000DF6E03014351432BEA6A460FE96E030E3D
:103F2000EA22DFCFEFFF400E435D01E3436B452BF9
:103F30009E9AE552E552E7CFD9FFE55200EE1BF01D
:103F4000080EE80403E3E5CFEDFFFBD700EE13F026
:103F5000140EE80403E3E5CFEDFFFBD7E5CFFAFF4E
:103F6000E5CFF4FFE5CFF3FFE5CFF5FFE5CFF7FFB2
:103F7000E5CFF6FFE5CFEAFFE5CFE9FFE5CFDAFFD2
:103F80001100DACFE4FFE2CFDAFFE9CFE4FFEACFB6
:103F9000E4FFF6CFE4FFF7CFE4FFF5CFE4FFF3CF84
:103FA000E4FFF4CFE4FFFACFE4FF00EE00F0140EDC
:103FB000E80403E3EECFE4FFFBD700EE14F0080EB5
:103FC000E80403E3EECFE4FFFBD7E652D9CFE6FFE8
:103FD000E1CFD9FFE652F0EC2CF0DF6E0301C951BE
:103FE000C92BEA6ACC0FE96E030EEA22DFCFEFFF9E
:103FF000400EC95D01E3C96BCB2BA49AE552E55293
:10400000E7CFD9FFE55200EE1BF0080EE80403E30A
:10401000E5CFEDFFFBD700EE13F0140EE80403E349
:10402000E5CFEDFFFBD7E5CFFAFFE5CFF4FFE5CF16
:10403000F3FFE5CFF5FFE5CFF7FFE5CFF6FFE5CFDF
:10404000EAFFE5CFE9FFE5CFDAFF1100DACFE4FFC1
:10405000E2CFDAFFE9CFE4FFEACFE4FFE652D9CFBF
:10406000E6FFE1CFD9FFE6520301025104E1ACA221
:10407000FED7AC9A1BD00151EA6A030FE96E030E1A
:10408000EA22EFCFDFFFDF50AD6E012B400E015D66
:1040900001E3016B000EE76E0219E8AE02D00235B3
:1040A00003D0E750D880025501E20207E552E552FD
:1040B000E7CFD9FFE552E5CFEAFFE5CFE9FFE5CF4E
:1040C000DAFF1100DACFE4FFE2CFDAFFE9CFE4FF55
:1040D000EACFE4FFE652D9CFE6FFE1CFD9FFE652BF
:1040E0000301885104E172A2FED7729A1BD0875156
:1040F000EA6A890FE96E030EEA22EFCFDFFFDF5095
:10410000736E872B400E875D01E3876B000EE76EB1
:104110008819E8AE02D0883503D0E750D88088559A
:1041200001E28807E552E552E7CFD9FFE552E5CF36
:10413000EAFFE5CFE9FFE5CFDAFF1100D9CFE6FFCF
:10414000E1CFD9FFE6527C0EDF6E0F0EE66EE66A17
:10415000DFCFE6FF61EC2CF0E552E552E552AB8E85
:10416000AC8AAC9E9D8A9F8AE552E552E7CFD9FF83
:104170001200D9CFE6FFE1CFD9FFE6527C0EDF6E09
:10418000670EE66EE66ADFCFE6FF25EC2CF0E5521F
:10419000E552E552D08E718E728A729EA38AA58AEC
:1041A000E552E552E7CFD9FF1200D9CFE6FFE1CFC4
:1041B000D9FFACA2FED703010051002BEA6A030F1E
:1041C000E96E030EEA22FE0EDBCFEFFF022B400E5C
:1041D000005D01E3006B010E00D0E552E7CFD9FF8F
:1041E0001200D9CFE6FFE1CFD9FF72A2FED70301BB
:1041F0008651862BEA6A890FE96E030EEA22FE0ECB
:10420000DBCFEFFF882B400E865D01E3866B010E4E
:1042100000D0E552E7CFD9FF1200D9CFE6FFE1CFBA
:10422000D9FF060EE126010EF36E020EF3CFDBFF7F
:10423000030EDB6A020EDBCF14F0DB06030EDBCFCE
:1042400015F001E2DB061450151006E0040EE66ED0
:10425000BEEC2DF0E552EED7000E0301E76E021919
:10426000E8AE02D0023503D0E750D880025523E2F1
:104270000151EA6A030FE96E030EEA22010EEFCF45
:10428000DBFFACA2FED7010EDB50AD6EACA2FED7B9
:104290000301012B400E015D01E3016B000EE76E8F
:1042A0000219E8AE02D0023503D0E750D88002559B
:1042B00001E20207D1D7010EF36E040EF3CFDBFF4C
:1042C000050EDB6A040EDBCF14F0DB06050EDBCF38
:1042D00015F001E2DB061450151006E0040EE66E40
:1042E000BEEC2DF0E552EED7146E060EE15C02E254
:1042F000E16AE552E16E1450E552E7CFD9FF1200B2
:10430000D9CFE6FFE1CFD9FF060EE126010EF36E0D
:10431000020EF3CFDBFF030EDB6A020EDBCF14F0DD
:10432000DB06030EDBCF15F001E2DB06145015109F
:1043300006E0040EE66EBEEC2DF0E552EED7000E60
:104340000301E76E8819E8AE02D0883503D0E75044
:10435000D880885523E28751EA6A890FE96E030EF7
:10436000EA22010EEFCFDBFF72A2FED7010EDB5077
:10437000736E72A2FED70301872B400E875D01E3A7
:10438000876B000EE76E8819E8AE02D0883503D03F
:10439000E750D880885501E28807D1D7010EF36E27
:1043A000040EF3CFDBFF050EDB6A040EDBCF14F047
:1043B000DB06050EDBCF15F001E2DB06145015100D
:1043C00006E0040EE66EBEEC2DF0E552EED7146E5C
:1043D000060EE15C02E2E16AE552E16E1450E5523C
:1043E000E7CFD9FF1200D9CFE6FFE1CFD9FFE652E0
:1043F000DF6AA39A000E0301E76ECB19E8AE02D084
:10440000CB3503D0E750D880CB5502E2010EDF6EEA
:10441000A38ADF5000D0E552E552E7CFD9FF120062
:10442000D9CFE6FFE1CFD9FFE652DF6A9D9A000EB1
:104430000301E76E4519E8AE02D0453503D0E750D9
:10444000D880455502E2010EDF6E9D8ADF5000D014
:10445000E552E552E7CFD9FF1200D9CFE6FFE1CF11
:10446000D9FFE6529D9A03014451442BEA6A460F54
:10447000E96E030EEA22EFCFDFFF400E445D01E359
:10448000446B000EE76E4519E8AE02D0453503D007
:10449000E750D880455501E245079D8ADF5000D09E
:1044A000E552E552E7CFD9FF1200D9CFE6FFE1CFC1
:1044B000D9FFE652A39A0301CA51CA2BEA6ACC0F6C
:1044C000E96E030EEA22EFCFDFFF400ECA5D01E383
:1044D000CA6B000EE76ECB19E8AE02D0CB3503D025
:1044E000E750D880CB5501E2CB079D8ADF5000D042
:0A44F000E552E552E7CFD9FF1200B4
:0644FA00D9CFE6FFE1CF7F
:10450000D9FF030EE126300EF36E010EF3CFDBFF71
:10451000750EF36E020EF3CFDBFF010EDF6EDF04CC
:1045200025E105DA0000000083928384000000008A
:104530008386000000008350800B01E0010EDF6ED7
:1045400083968386000000008396010EDB06020E30
:1045500001E2DB06D950010FE96EDACFEAFFEE5037
:10456000ED1003E1ECD9FF0E04D0D9D7E8D9000E45
:1045700000D0146E030EE15C02E2E16AE552E16EE6
:104580001450E552E7CFD9FF1200D9CFE6FFE1CFB3
:10459000D9FF839283940000FE0EDB50F00B146E63
:1045A0000F0E8C1414108C6E000083860000000027
:1045B0008396E552E7CFD9FF1200D9CFE6FFE1CFCE
:1045C000D9FF9BDF839283940000FE0EDB50F00B3B
:1045D000146E0F0E8C1414108C6E00008386000075
:1045E00000008396FE0EDB38F00BF00B146E0F0EFE
:1045F0008C1414108C6E00008386000000008396DB
:10460000E552E7CFD9FF1200D9CFE6FFE1CFD9FFBE
:1046100074DF838283940000FE0EDB50F00B146E77
:104620000F0E8C1414108C6E0000838600000000A6
:104630008396FE0EDB38F00BF00B146E0F0E8C140D
:1046400014108C6E00008386000000008396E552F3
:10465000E7CFD9FF1200D9CFE6FFE1CFD9FF0B0E8C
:10466000E1266DD9280EF36E010EF3CFDBFF020EAB
:10467000DB6A010EDBCF14F0DB06020EDBCF15F098
:1046800001E2DB061450151006E0040EE66EBEECE7
:104690002DF0E552EED7300EE66E77DFE5520A0ECA
:1046A000F36E030EF3CFDBFF040EDB6A030EDBCFEA
:1046B00014F0DB06040EDBCF15F001E2DB0614502C
:1046C000151006E0040EE66EBEEC2DF0E552EED7B6
:1046D000300EE66E5ADFE5520A0EF36E050EF3CF8A
:1046E000DBFF060EDB6A050EDBCF14F0DB06060EE1
:1046F000DBCF15F001E2DB061450151006E0040EC6
:10470000E66EBEEC2DF0E552EED7300EE66E3DDFE4
:10471000E5520A0EF36E070EF3CFDBFF080EDB6ADD
:10472000070EDBCF14F0DB06080EDBCF15F001E23D
:10473000DB061450151006E0040EE66EBEEC2DF0FC
:10474000E552EED7200EE66E20DFE5520A0EF36E3C
:10475000090EF3CFDBFF0A0EDB6A090EDBCF14F084
:10476000DB060A0EDBCF15F001E2DB061450151054
:1047700006E0040EE66EBEEC2DF0E552EED7280EF4
:10478000E66E1BDFE552B9DEDF6EDF5010E10F0E83
:10479000E66E13DFE552010EE66E0FDFE552040E02
:1047A000E66E0BDFE552060EE66E07DFE5520B0EF6
:1047B000E15C03E200D0E16AE552E16EE552E7CF49
:1047C000D9FF1200D9CFE6FFE1CFD9FFFE0EDBCF34
:1047D00001F2E552E7CFD9FF1200010EE66EEDDEE1
:1047E000E5520201006B1200D9CFE6FFE1CFD9FFFD
:1047F000E652FE0EDB500201015D23E1005101E1B2
:1048000037D0100E005D0EE1800EE66ED6DEE5526A
:10481000DF6A100EDF5C06E2140EE66ECEDEE552B5
:10482000DF2AF7D7100EE66EC8DEE552200EE66EE0
:10483000EBDEE552100EE66EC0DEE5520201000727
:1048400017D0100E005D05E1C00EE66EB6DEE55233
:1048500008D0200E005D05E3006B020EE66EADDEB3
:10486000E552FE0EDBCFE6FFCFDEE5520201002B64
:10487000E552E552E7CFD9FF1200EDDE010EE66EFC
:104880009CDEE5520201006B1200D9CFE6FFE1CFBA
:10489000D9FFE652010EE66E90DEE552DF6A100E99
:1048A000DF5C1CE2FD0EDBCFE9FFFE0EDBCFEAFF93
:1048B000EF50E66EDF50EA6A020FE96E020EEA225E
:1048C000E552E750EF6EFD0EDBCFE9FFDB2AFE0E6F
:1048D000DBCFEAFF01E3DB2ADF2AE1D7C00EE66E79
:1048E0006CDEE552DF6A100EDF5C1CE2FD0EDBCFF2
:1048F000E9FFFE0EDBCFEAFFEF50E66EDF50EA6A1B
:10490000020FE96E020EEA22E552E750EF6EFD0E4D
:10491000DBCFE9FFDB2AFE0EDBCFEAFF01E3DB2A78
:10492000DF2AE1D7E552E552E7CFD9FF1200958E95
:10493000958C958A95889596959495921200959E5A
:0E494000959C959A959895969594959212004F
:02494E00D9CFBF
:10495000E6FFE1CFD9FF9EEC20F0FE0EDBCF23F285
:10496000FD0EDBCF24F2FC0EDBCF25F2FB0EDBCFFE
:1049700026F2F90EDBCFABF2FA0EDBCFACF204D8A5
:10498000E552E7CFD9FF12009EEC20F00201A76BA1
:10499000A86B010E226FA96B050EAA6FB1C2ADF212
:1049A000B2C2AEF2B3C2AFF2B4C2B0F222C2B5F23A
:1049B0001200D9CFE6FFE1CFD9FF060EE126DF6A6C
:1049C0008CEC29F006C0B1F207C0B2F208C0B3F215
:1049D00009C0B4F2AD0EE96E020EEA6EEE500201AD
:1049E000B11909E1EE50B21906E1EE50B31903E135
:1049F000EE50B41900E110E02251B55D05E1AA07BF
:104A0000AA5102E1C1DFBCD0B1C2ADF2B2C2AEF276
:104A1000B3C2AFF2B4C2B0F22251030A01E1ABD08B
:104A2000010A14E0030A02E0AFDFA8D010EC22F084
:104A3000000901E1A5D02DEC22F0DF6E0201235127
:104A4000DF5C03E1A76B020E226F98D010EC22F01E
:104A5000000901E195D02DEC22F0DF6E0201245116
:104A6000DF5C74E1020EDB6A030EDB68D950030FD2
:104A7000E66E000EDA20E66E8DD8E552E552E76E5E
:104A8000020EE7CFDBFFDB50020A54E0030A05E029
:104A9000010A01E057D078DF73D00201AB51AC11AD
:104AA00047E0D950040FE66E000EDA20E66EA90E3C
:104AB000E66E020EE66E290EE66E020EE66E05D07A
:104AC000ACC2FAFF0201AB51F96EFADF146E060EAA
:104AD000E15E14500201A86F0D0E676FA82BA9C2EA
:104AE00068F2A82BDE52020EDD6EA851F36E010EA5
:104AF000DBCFF4FFF350F45C1AE2040EDBCFE9FFE6
:104B0000050EDBCFEAFFEF50E66E010EDB50EA6ADE
:104B1000670FE96E020EEA22E552E750EF6E040ECF
:104B2000DB2A050E01E3DB2A010EDB2ADED701D0EA
:104B30002BDF08D002010D0E676FA82BA9C268F207
:104B4000A82B00D00201030E226F14D0A751A72B6F
:104B5000EA6A270FE96E020EEA22DFCFEFFF400E6E
:104B6000A75D08E30D0E676FA82B900E686FA82B4A
:104B7000030E226F03D05AD807DF00D022C2B5F24D
:104B8000060EE15C02E2E16AE552E16EE552E7CF32
:104B9000D9FF1200D9CFE6FFE1CFD9FF020EE126FF
:104BA0000201A705EA6A270FE96E020EEA22EFCF9B
:104BB000DFFF010EDB6A0D0E275D05E0FA0E275DB3
:104BC00002E0000E27D0A705E66E270EE66E020E65
:104BD000E66E9ED8E552E552E552E76E010EE7CF4C
:104BE000DBFFDB50DF5C0CE10201A707A751EA6A9B
:104BF000270FE96E020EEA22EF6A010E0BD00AD0EF
:104C0000FD0EDBCFE9FFFE0EDBCFEAFF910EEF6E6C
:104C1000000E00D0146E020EE15C02E2E16AE55281
:104C2000E16E1450E552E7CFD9FF1200D9CFE6FF6D
:104C3000E1CFD9FF020EE126DF6A010EDB6AA8C2CE
:104C4000E6FF670EE66E020EE66E62D8E552E552AA
:104C5000E552DF6E25C2E6FFD5EC20F0E552010EED
:104C6000DB6A0201A851F36E010EDBCFF4FFF350B3
:104C7000F45C0FE2010EDB50EA6A670FE96E020E88
:104C8000EA22EF50E66ED5EC20F0E552010EDB2A69
:104C9000E8D7DFCFE6FFD5EC20F0E55226C2E6FFED
:104CA000D5EC20F0E5520DEC21F0020EE15C02E2C1
:104CB000E16AE552E16EE552E7CFD9FF1200D9CFA4
:104CC000E6FFE1CFD9FFFD0EDBCFF6FFFE0EDBCF17
:104CD000F7FF0800F55016E0FD0EDBCFF6FFFE0EE5
:104CE000DBCFF7FF0800F550E66ED5EC20F0E5527B
:104CF000FD0EDBCFF6FFDB2AFE0EDBCFF7FF01E375
:104D0000DB2AE1D70DEC21F0E552E7CFD9FF120005
:104D1000D9CFE6FFE1CFD9FF030EE126DF6A010E0E
:104D2000DB6AFC0EDB50F36E010EDBCFF4FFF350B9
:104D3000F45C12E2010EDB50E76EFD0EDBCFE9FF03
:104D4000FE0EDBCFEAFFE750E926000EEA22EF5025
:104D5000DF1A010EDB2AE5D7DF50146E030EE15C8B
:104D600003E200D0E16AE552E16E1450E552E7CF6C
:044D7000D9FF120055
:0C4D74000F01326B336B0101906B916BEF
:104D8000926B93691200D9CFE6FFE1CFD9FF020EF3
:104D9000E1260F01342BD9CFE6FFDACFE6FF21D988
:104DA000E552E552000901E117D00F013251335DA0
:104DB00002E1336B326B3351E96EEA6AD890E9361F
:104DC000EA36240EE9260F0EEA22DFCFEFFF060EA9
:104DD000335D01E2332B346B020EE15C02E2E16AE7
:104DE000E552E16EE552E7CFD9FF1200D9CFE6FFD9
:104DF000E1CFD9FF040EE126240E0101955D04E305
:104E0000000EDAD00101956B9551040DF3CFF6FF3A
:104E1000F4CFF7FF780EF626530EF7220900F5CFF0
:104E200014F00800F5CF15F0FF0E141801E115502D
:104E300049E09551040DF3CFF6FFF4CFF7FF780E5C
:104E4000F626530EF7220900F5CF16F00800F5CF2D
:104E500017F0180E161801E1175034E09551040DA3
:104E6000F3CFF6FFF4CFF7FF780EF626530EF722B6
:104E70000800F550E66EFD0EDBCFE9FFFE0EDBCF3E
:104E8000EAFFE552E750EF6E9551040DF3CFF6FFC0
:104E9000F4CFF7FF780EF626530EF722020EF62611
:104EA000000EF7220800F550E66EFB0EDBCFE9FF9F
:104EB000FC0EDBCFEAFFE552E750EF6E952B010EBB
:104EC0007BD05DD09551040DF3CFF6FFF4CFF7FF03
:104ED000780EF626530EF7220900F5CF14F00800DD
:104EE000F5CF15F0180E141801E1155048E1640EC5
:104EF000DE6EDD6ADFCF14F0DF06010EDBCF15F0CA
:104F000001E2DB061450151006E0040EE66EBEEC5E
:104F10002DF0E552EFD701019551040DF3CFF6FFC7
:104F2000F4CFF7FF780EF626530EF7220800F5505F
:104F3000E66EFD0EDBCFE9FFFE0EDBCFEAFFE552AA
:104F4000E750EF6E9551040DF3CFF6FFF4CFF7FF66
:104F5000780EF626530EF722020EF626000EF722E2
:104F60000800F550E66EFB0EDBCFE9FFFC0EDBCF51
:104F7000EAFFE552E750EF6E952B010E1DD0320E81
:104F8000F36E020EF3CFDBFF030EDB6A020EDBCF04
:104F900014F0DB06030EDBCF15F001E2DB06145044
:104FA000151006E0040EE66EBEEC2DF0E552EED7CD
:104FB0000101952B000E00D0146E040EE15C02E29C
:104FC000E16AE552E16E1450E552E7CFD9FF1200D5
:104FD0000F01336B326B0101906B916B926B936994
:104FE0001200D9CFE6FFE1CFD9FFE652DF68010E0C
:104FF000146E8150800B01E0010E145C6FE1815052
:10500000200B01E0010E166E8150040B01E0010E31
:10501000E824156E8150100B01E0010E040DF3CF52
:1050200014F08150080B01E0010E080DF35014102C
:10503000151016100F0BDF6EDF500F0A4CE0010A3F
:1050400047E0030A42E0010A3DE0070A38E0010AAE
:1050500033E0030A2FE0010A2AE00F0A25E0010AE3
:1050600020E0030A1BE0010A16E0070A11E0010A2A
:105070000CE0030A07E0010A02E0DF682FD0050E0A
:10508000DF6E2CD0060EDF6E29D0090EDF6E26D023
:105090000A0EDF6E23D0020EDF6E20D0010EDF6E0F
:1050A0001DD0030EDF6E1AD0070EDF6E17D0040E70
:1050B000DF6E14D0DF6A12D00B0EDF6E0FD00F0E32
:1050C000DF6E0CD00C0EDF6E09D0080EDF6E06D03E
:1050D0000E0EDF6E03D00D0EDF6E00D0FF0EDF5C14
:1050E00006E10F01356901019469000E18D00F0126
:1050F0003551DF5C10E101019451DF5C0CE0FD0EE5
:10510000DBCFE9FFFE0EDBCFEAFFDFCFEFFFDFCF24
:1051100094F1010E04D0DFCF35FF000E00D0E55230
:08512000E552E7CFD9FF1200B0
:08512800DACFE4FFE2CFDAFF69
:10513000E9CFE4FFEACFE4FFF6CFE4FFF7CFE4FFE7
:10514000F5CFE4FFF3CFE4FFF4CFE4FFFACFE4FFC1
:1051500000EE00F0140EE80403E3EECFE4FFFBD70B
:1051600000EE14F0080EE80403E3EECFE4FFFBD7F3
:10517000E652F2940101A52B000EA623A72BA8232B
:10518000A92BAA23AB2BAC23AD07AE5BAE3504E253
:10519000AD510008000EAE5509E3AF2B000EB02351
:1051A000B123B223E80EAD6F030EAE6F99519A1181
:1051B00007E005D09AC1FAFF01019951F96EFADFB3
:1051C00097C1E6FF98C1E6FF86EC2DF0E552E55267
:1051D000E55200EE1BF0080EE80403E3E5CFEDFF17
:1051E000FBD700EE13F0140EE80403E3E5CFEDFF68
:1051F000FBD7E5CFFAFFE5CFF4FFE5CFF3FFE5CF2F
:10520000F5FFE5CFF7FFE5CFF6FFE5CFEAFFE5CF06
:10521000E9FFE5CFDAFF1100DACFE4FFE2CFDAFFF2
:10522000E9CFE4FFEACFE4FFF6CFE4FFF7CFE4FFF6
:10523000F5CFE4FFF3CFE4FFF4CFE4FFFACFE4FFD0
:1052400000EE00F0140EE80403E3EECFE4FFFBD71A
:1052500000EE14F0080EE80403E3EECFE4FFFBD702
:10526000E6529E909BC1E6FF9CC1E6FF6AEC2DF0E2
:10527000E552E55201019D519E1107E005D09EC106
:10528000FAFF01019D51F96EFADFE55200EE1BF0C5
:10529000080EE80403E3E5CFEDFFFBD700EE13F0C3
:1052A000140EE80403E3E5CFEDFFFBD7E5CFFAFFEB
:1052B000E5CFF4FFE5CFF3FFE5CFF5FFE5CFF7FF4F
:1052C000E5CFF6FFE5CFEAFFE5CFE9FFE5CFDAFF6F
:1052D0001100D9CFE6FFE1CFD9FF9F0EE66EA2EC19
:1052E0002DF0E552FD0EDBCF97F1FE0EDBCF98F1EE
:1052F000FB0EDBCF99F1FC0EDBCF9AF1FD0EDBCF7D
:10530000E6FFFE0EDBCFE6FF86EC2DF0E552E55220
:10531000E552E7CFD9FF1200D9CFE6FFE1CFD9FFA1
:10532000040EE126F29AAFC1DFFF010EB0C1DBFF30
:10533000020EB1C1DBFF030EB2C1DBFFF28ADECF8A
:1053400006F0DECF07F0DECF08F0DDCF09F0DD524A
:10535000DD52040EE15C03E200D0E16AE552E16E49
:10536000E552E7CFD9FF1200F29E0101AF6BB06B9F
:08537000B16BB26BF28E12006A
:08537800010028000F003200C3
:10538000010032000F003200010032000F00320035
:105390000F003200030032000F0032000300320021
:1053A000040032000500280006001E00030028004B
:1053B00004001E000B0032000C001E000E0028002E
:1053C0000E001E000E0028000C001E00010032001E
:1053D0000C003200030032000C00320001002800F3
:1053E0000C001E00010032000C00320004003200EC
:1053F0000C003200010028000C001E0001003200E9
:105400000C003200050032000C00320001002800C0
:105410000C001E00010032000C00320006003200B9
:105420000C003200010032000C0032000200320099
:105430000C00280002001E000B00320008003200A1
:10544000010032000C0032000C0032000B0028007A
:105450000C001E000500320006003200030032007E
:105460000C003200010032000C0032000900320052
:105470000C00320001003200020032000C00320049
:10548000010032000C003200030032000100320043
:105490000C0032000B003200020032000C0032001F
:1054A000020032000C003200010032000C00320019
:1054B000030032000100320002003200030032001B
:1054C000010032000200320003003200010032000D
:1054D00002003200030032000100320002003200FC
:1054E00003003200010032000200320018002D00DB
:1054F000FE0EE3CFE9FFFF0EE3CFEAFFE9CFF3FFB4
:10550000EACFF4FFFB0EE35003E1FC0EE35009E0A9
:10551000FB0EE30602E2FC0EE306FD0EE350EE6E28
:10552000F1D71200D9CFE6FFDACFE6FFFA0EE3CFCC
:10553000D9FFFB0EE3CFDAFFFC0EE3CFE9FFFD0E50
:10554000E3CFEAFFDE50EF5C02E1EE66FBD7F36EDD
:10555000FF0EE3CFDAFFE552FF0EE3CFD9FFE552AE
:10556000F3501200D9CFE6FFDACFE6FFFA0EE3CF11
:10557000D9FFFB0EE3CFDAFFFC0EE3CFE9FFFD0E10
:10558000E3CFEAFFE9CFF3FFEACFF4FFDECFEFFF8F
:10559000EE66FCD7FF0EE3CFDAFFE552FF0EE3CF56
:1055A000D9FFE5521200FB0EE3CFF6FFFC0EE3CF6E
:1055B000F7FFFD0EE3CFF8FFFE0EE3CFE9FFFF0E8E
:1055C000E3CFEAFFE9CFF3FFEACFF4FF0900F5CF1D
:1055D000EFFFEE66FBD71200FE0EE3CFE9FFFF0EF2
:1055E000E3CFEAFFF36AF46AEE5203E0F34AF42AE7
:0455F000FBD71200D3
:0C55F40050524F44554354494F4E00574D
:10560000415245484F555345005155414C49545915
:10561000004F54484552530041444D494E204143A8
:105620005449564954593A0050415353574F5244E4
:105630003A00434C4541522049535355455300438A
:105640004C4153533A0041434B4E4F574C4544470E
:10565000450050415254204E4F3A00504152542080
:1056600053484F525441474500464143494C4954E1
:105670005900534146455459004445504152544DF8
:10568000454E543A005052444E205154593A00531A
:10569000544154494F4E3A0049443A004C494E4512
:0256A0003A00CE
:0E56A2002A0EF66E000EF76E000EF86E020174
:1056B0000900F550BB6F0900F550BC6F03E1BB67F3
:1056C00001D03DD00900F550B66F0900F550B76F15
:1056D0000900F550B86F09000900F550E96E09009E
:1056E000F550EA6E090009000900F550B96F09008C
:1056F000F550BA6F09000900F6CFBDF2F7CFBEF240
:10570000F8CFBFF2B6C2F6FFB7C2F7FFB8C2F8FFD4
:105710000201B95302E1BA5307E00900F550EE6EF9
:10572000B907F8E2BA07F9D7BDC2F6FFBEC2F7FF64
:10573000BFC2F8FF0201BB07000EBC5BBFD712005F
:10574000D9CFE6FFE1CFD9FFE6524CEC2DF0000EA9
:10575000E66EE66A600EE66EF00EE66E69EC29F023
:10576000E552E552E552E5523DEC24F0BAEC26F064
:10577000B8EC16F058EC00F0F28E0101F40EA55DC5
:10578000010EA65905E3FDEC2DF00101A56BA66BFA
:105790000101280EA75D000EA85905E3C3EC26F011
:1057A0000101A76BA86B01010A0EA95D000EAA59A1
:1057B00005E3D9EC24F00101A96BAA6B04000400F5
:1057C000C5EC16F00400D9D7E552E552E7CFD9FF72
:0257D0001200C5
:0E57D200D9CFE6FFDACFE6FFE1CFD9FFE2CF75
:1057E000DAFFE652DF6AFD0EDBCF15F015C014F0CC
:1057F000030E1514AA6EFF0EE76EFC0EDBCF14F03D
:10580000E7501416156A1450A96EFB0EDB50A86EF3
:10581000A69EA69CA684F250800B01E0010EDF6ECE
:10582000F29E550EA76EAA0EA76EA682A6B2FED74E
:10583000DF50E8B0F28EE8A0F29EA694E552E55261
:0A584000E5CFDAFFE7CFD9FF120031
:06584A00D9CFE6FFDACF22
:10585000E6FFE1CFD9FFE2CFDAFF726A716AFD0E8F
:10586000DBB07288DBA202D0728C718CDBB4728EDA
:10587000DBA602D0718801D0718ADBA802D07284C5
:1058800001D07294DBBA7186DBAC02D0A38A01D05E
:10589000A39ADBAE02D0A38801D0A398FB0EDB5005
:1058A000756EFC0EDBCF15F015C014F0156A1450A0
:1058B000766E728A718EE552E5CFDAFFE7CFD9FFB7
:0258C0001200D4
:0E58C200D9CFE6FFDACFE6FFE1CFD9FFE2CF84
:1058D000DAFFAC6AAB6AFD0EDBB0AC88DBA202D0AB
:1058E000AC8CAB8CDBB4AC8EDBA602D0AB8801D029
:1058F000AB8ADBB8AC84DBBAAB86DBAC02D09D8A6A
:1059000001D09D9ADBAE02D09D8801D09D98FB0E00
:10591000DB50AF6EFC0EDBCF15F015C014F0156A2E
:105920001450B06EAC8AAB8EE552E5CFDAFFE7CF0C
:04593000D9FF120089
:0C593400D9CFE6FFDACFE6FFE1CFD9FFC4
:10594000E2CFDAFFFC0EDBCF14F0FD0EDBCF15F05B
:1059500015C014F0156A030E1414AA6EFF0EE76E3C
:10596000FC0EDBCF14F0FD0EDBCF15F0E750141664
:10597000156A1450A96EA69CA69EA6800000000081
:10598000A85000D0E552E5CFDAFFE7CFD9FF1200EB
:10599000312D312D31324142433233444546330BB0
:1059A0000B0B0B0B3447484934354A4B4C35364DBD
:1059B0004E4F360C0C0C0C0C37505152533854557A
:1059C0005638395758595A08080808082A2A2A2ADE
:1059D0002A302030203013131313130A0A0A0A0A3C
:1059E000D9CFE6FFDACFE6FFE1CFD9FFE2CFDAFF8A
:1059F000E652F20E0201C01771AC03D0C09171B033
:105A0000C08171B4C08571B2C0877450DF6EDF5041
:0E5A1000E552E552E5CFDAFFE7CFD9FF1200ED
:025A1E00D9CFDE
:105A2000E6FFDACFE6FFE1CFD9FFE2CFDAFFE652B9
:105A3000F20E0201C117ABAC03D0C191ABB0C18172
:105A4000ABB4C185ABB2C187AE50DF6EDF50E5525B
:0C5A5000E552E5CFDAFFE7CFD9FF1200E6
:045A5C0008C012F07C
:105A600008500D02F4CF07F0F3CF06F009500E02F4
:105A7000F4CF09F0F3CF08F00D02F3500726F450ED
:105A80000822E86A092212500E02F3500726F45049
